{
  "abi": [
    {
      "inputs": [
        {
          "internalType": "address",
          "name": "web3Entry",
          "type": "address"
        }
      ],
      "stateMutability": "nonpayable",
      "type": "constructor"
    },
    {
      "inputs": [],
      "name": "Web3Entry",
      "outputs": [
        {
          "internalType": "address",
          "name": "",
          "type": "address"
        }
      ],
      "stateMutability": "view",
      "type": "function"
    },
    {
      "inputs": [
        {
          "internalType": "uint256",
          "name": "characterId",
          "type": "uint256"
        },
        {
          "internalType": "address[]",
          "name": "addresses",
          "type": "address[]"
        },
        {
          "internalType": "bool[]",
          "name": "toApprove",
          "type": "bool[]"
        }
      ],
      "name": "approve",
      "outputs": [],
      "stateMutability": "nonpayable",
      "type": "function"
    },
    {
      "inputs": [
        {
          "internalType": "uint256",
          "name": "characterId",
          "type": "uint256"
        },
        {
          "internalType": "bytes",
          "name": "data",
          "type": "bytes"
        }
      ],
      "name": "initializeLinkModule",
      "outputs": [
        {
          "internalType": "bytes",
          "name": "",
          "type": "bytes"
        }
      ],
      "stateMutability": "nonpayable",
      "type": "function"
    },
    {
      "inputs": [
        {
          "internalType": "address",
          "name": "characterOwner",
          "type": "address"
        },
        {
          "internalType": "uint256",
          "name": "characterId",
          "type": "uint256"
        },
        {
          "internalType": "address",
          "name": "toCheck",
          "type": "address"
        }
      ],
      "name": "isApproved",
      "outputs": [
        {
          "internalType": "bool",
          "name": "",
          "type": "bool"
        }
      ],
      "stateMutability": "view",
      "type": "function"
    },
    {
      "inputs": [
        {
          "internalType": "address",
          "name": "caller",
          "type": "address"
        },
        {
          "internalType": "uint256",
          "name": "characterId",
          "type": "uint256"
        },
        {
          "internalType": "bytes",
          "name": "data",
          "type": "bytes"
        }
      ],
      "name": "processLink",
      "outputs": [],
      "stateMutability": "nonpayable",
      "type": "function"
    }
  ],
  "bytecode": {
    "object": "0x60a060405234801561001057600080fd5b50604051610ae9380380610ae983398101604081905261002f9161008f565b806001600160a01b03811661007d5760405162461bcd60e51b815260206004820152601060248201526f496e76616c696457656233456e74727960801b604482015260640160405180910390fd5b6001600160a01b0316608052506100bf565b6000602082840312156100a157600080fd5b81516001600160a01b03811681146100b857600080fd5b9392505050565b6080516109f36100f66000396000818161010401528181610162015281816102b50152818161032f015261048301526109f36000f3fe608060405234801561001057600080fd5b50600436106100575760003560e01c806335aa84b01461005c57806351615fee146100855780636cca63f2146100d7578063b47d869b146100ec578063c5a5ed51146100ff575b600080fd5b61006f61006a366004610643565b61013e565b60405161007c919061068f565b60405180910390f35b6100c761009336600461070c565b6001600160a01b03928316600090815260208181526040808320948352938152838220929094168152925290205460ff1690565b604051901515815260200161007c565b6100ea6100e536600461074e565b6102aa565b005b6100ea6100fa3660046107ef565b610427565b6101267f000000000000000000000000000000000000000000000000000000000000000081565b6040516001600160a01b03909116815260200161007c565b6040516331a9108f60e11b8152600481018490526060906000906001600160a01b037f00000000000000000000000000000000000000000000000000000000000000001690636352211e90602401602060405180830381865afa1580156101a9573d6000803e3d6000fd5b505050506040513d601f19601f820116820180604052508101906101cd9190610869565b9050821561026a5760006101e3848601866108a3565b805190915060005b81811015610266576001600160a01b0384166000908152602081815260408083208b8452909152812084516001929086908590811061022c5761022c610968565b6020908102919091018101516001600160a01b03168252810191909152604001600020805460ff19169115159190911790556001016101eb565b5050505b83838080601f0160208091040260200160405190810160405280939291908181526020018383808284376000920191909152509298975050505050505050565b336001600160a01b037f000000000000000000000000000000000000000000000000000000000000000016146103165760405162461bcd60e51b815260206004820152600c60248201526b4e6f7457656233456e74727960a01b60448201526064015b60405180910390fd5b6040516331a9108f60e11b8152600481018490526000907f00000000000000000000000000000000000000000000000000000000000000006001600160a01b031690636352211e90602401602060405180830381865afa15801561037e573d6000803e3d6000fd5b505050506040513d601f19601f820116820180604052508101906103a29190610869565b6001600160a01b038082166000908152602081815260408083208984528252808320938a168352929052205490915060ff166104205760405162461bcd60e51b815260206004820152601f60248201527f417070726f76616c4c696e6b4d6f64756c653a204e6f74417070726f76656400604482015260640161030d565b5050505050565b82811461046a5760405162461bcd60e51b8152602060048201526011602482015270125b9a5d14185c985b5cd25b9d985b1a59607a1b604482015260640161030d565b6040516331a9108f60e11b8152600481018690526000907f00000000000000000000000000000000000000000000000000000000000000006001600160a01b031690636352211e90602401602060405180830381865afa1580156104d2573d6000803e3d6000fd5b505050506040513d601f19601f820116820180604052508101906104f69190610869565b9050336001600160a01b038216146105445760405162461bcd60e51b81526020600482015260116024820152702737ba21b430b930b1ba32b927bbb732b960791b604482015260640161030d565b8360005b818110156105f05784848281811061056257610562610968565b9050602002016020810190610577919061097e565b6001600160a01b0384166000908152602081815260408083208c84529091528120908989858181106105ab576105ab610968565b90506020020160208101906105c091906109a0565b6001600160a01b031681526020810191909152604001600020805460ff1916911515919091179055600101610548565b5050505050505050565b60008083601f84011261060c57600080fd5b50813567ffffffffffffffff81111561062457600080fd5b60208301915083602082850101111561063c57600080fd5b9250929050565b60008060006040848603121561065857600080fd5b83359250602084013567ffffffffffffffff81111561067657600080fd5b610682868287016105fa565b9497909650939450505050565b600060208083528351808285015260005b818110156106bc578581018301518582016040015282016106a0565b818111156106ce576000604083870101525b50601f01601f1916929092016040019392505050565b6001600160a01b03811681146106f957600080fd5b50565b8035610707816106e4565b919050565b60008060006060848603121561072157600080fd5b833561072c816106e4565b9250602084013591506040840135610743816106e4565b809150509250925092565b6000806000806060858703121561076457600080fd5b843561076f816106e4565b935060208501359250604085013567ffffffffffffffff81111561079257600080fd5b61079e878288016105fa565b95989497509550505050565b60008083601f8401126107bc57600080fd5b50813567ffffffffffffffff8111156107d457600080fd5b6020830191508360208260051b850101111561063c57600080fd5b60008060008060006060868803121561080757600080fd5b85359450602086013567ffffffffffffffff8082111561082657600080fd5b61083289838a016107aa565b9096509450604088013591508082111561084b57600080fd5b50610858888289016107aa565b969995985093965092949392505050565b60006020828403121561087b57600080fd5b8151610886816106e4565b9392505050565b634e487b7160e01b600052604160045260246000fd5b600060208083850312156108b657600080fd5b823567ffffffffffffffff808211156108ce57600080fd5b818501915085601f8301126108e257600080fd5b8135818111156108f4576108f461088d565b8060051b604051601f19603f830116810181811085821117156109195761091961088d565b60405291825284820192508381018501918883111561093757600080fd5b938501935b8285101561095c5761094d856106fc565b8452938501939285019261093c565b98975050505050505050565b634e487b7160e01b600052603260045260246000fd5b60006020828403121561099057600080fd5b8135801515811461088657600080fd5b6000602082840312156109b257600080fd5b8135610886816106e456fea2646970667358221220b57e88233b8f42c6b46db122fd4d6f8d8a0afd18d866d334b9a023d47dc919dc64736f6c634300080a0033",
    "linkReferences": {}
  },
  "methodIdentifiers": {
    "Web3Entry()": "c5a5ed51",
    "approve(uint256,address[],bool[])": "b47d869b",
    "initializeLinkModule(uint256,bytes)": "35aa84b0",
    "isApproved(address,uint256,address)": "51615fee",
    "processLink(address,uint256,bytes)": "6cca63f2"
  },
  "id": 64
}