{
  "abi": [
    {
      "anonymous": false,
      "inputs": [
        {
          "indexed": false,
          "internalType": "uint8",
          "name": "version",
          "type": "uint8"
        }
      ],
      "name": "Initialized",
      "type": "event"
    },
    {
      "inputs": [
        {
          "internalType": "bytes32",
          "name": "linkKey",
          "type": "bytes32"
        }
      ],
      "name": "getLinkingAddress",
      "outputs": [
        {
          "internalType": "address",
          "name": "",
          "type": "address"
        }
      ],
      "stateMutability": "view",
      "type": "function"
    },
    {
      "inputs": [
        {
          "internalType": "uint256",
          "name": "fromCharacterId",
          "type": "uint256"
        },
        {
          "internalType": "bytes32",
          "name": "linkType",
          "type": "bytes32"
        }
      ],
      "name": "getLinkingAddresses",
      "outputs": [
        {
          "internalType": "address[]",
          "name": "",
          "type": "address[]"
        }
      ],
      "stateMutability": "view",
      "type": "function"
    },
    {
      "inputs": [
        {
          "internalType": "bytes32",
          "name": "linkKey",
          "type": "bytes32"
        }
      ],
      "name": "getLinkingAnyUri",
      "outputs": [
        {
          "internalType": "string",
          "name": "",
          "type": "string"
        }
      ],
      "stateMutability": "view",
      "type": "function"
    },
    {
      "inputs": [
        {
          "internalType": "uint256",
          "name": "fromCharacterId",
          "type": "uint256"
        },
        {
          "internalType": "bytes32",
          "name": "linkType",
          "type": "bytes32"
        }
      ],
      "name": "getLinkingAnyUris",
      "outputs": [
        {
          "internalType": "string[]",
          "name": "results",
          "type": "string[]"
        }
      ],
      "stateMutability": "view",
      "type": "function"
    },
    {
      "inputs": [
        {
          "internalType": "bytes32",
          "name": "linkKey",
          "type": "bytes32"
        }
      ],
      "name": "getLinkingCharacterId",
      "outputs": [
        {
          "internalType": "uint256",
          "name": "characterId",
          "type": "uint256"
        }
      ],
      "stateMutability": "view",
      "type": "function"
    },
    {
      "inputs": [
        {
          "internalType": "uint256",
          "name": "fromCharacterId",
          "type": "uint256"
        },
        {
          "internalType": "bytes32",
          "name": "linkType",
          "type": "bytes32"
        }
      ],
      "name": "getLinkingCharacterIds",
      "outputs": [
        {
          "internalType": "uint256[]",
          "name": "results",
          "type": "uint256[]"
        }
      ],
      "stateMutability": "view",
      "type": "function"
    },
    {
      "inputs": [
        {
          "internalType": "bytes32",
          "name": "linkKey",
          "type": "bytes32"
        }
      ],
      "name": "getLinkingERC721",
      "outputs": [
        {
          "components": [
            {
              "internalType": "address",
              "name": "tokenAddress",
              "type": "address"
            },
            {
              "internalType": "uint256",
              "name": "erc721TokenId",
              "type": "uint256"
            }
          ],
          "internalType": "struct DataTypes.ERC721Struct",
          "name": "",
          "type": "tuple"
        }
      ],
      "stateMutability": "view",
      "type": "function"
    },
    {
      "inputs": [
        {
          "internalType": "uint256",
          "name": "fromCharacterId",
          "type": "uint256"
        },
        {
          "internalType": "bytes32",
          "name": "linkType",
          "type": "bytes32"
        }
      ],
      "name": "getLinkingERC721s",
      "outputs": [
        {
          "components": [
            {
              "internalType": "address",
              "name": "tokenAddress",
              "type": "address"
            },
            {
              "internalType": "uint256",
              "name": "erc721TokenId",
              "type": "uint256"
            }
          ],
          "internalType": "struct DataTypes.ERC721Struct[]",
          "name": "results",
          "type": "tuple[]"
        }
      ],
      "stateMutability": "view",
      "type": "function"
    },
    {
      "inputs": [
        {
          "internalType": "bytes32",
          "name": "linkKey",
          "type": "bytes32"
        }
      ],
      "name": "getLinkingLinklistId",
      "outputs": [
        {
          "internalType": "uint256",
          "name": "linklistId",
          "type": "uint256"
        }
      ],
      "stateMutability": "view",
      "type": "function"
    },
    {
      "inputs": [
        {
          "internalType": "uint256",
          "name": "fromCharacterId",
          "type": "uint256"
        },
        {
          "internalType": "bytes32",
          "name": "linkType",
          "type": "bytes32"
        }
      ],
      "name": "getLinkingLinklistIds",
      "outputs": [
        {
          "internalType": "uint256[]",
          "name": "linklistIds",
          "type": "uint256[]"
        }
      ],
      "stateMutability": "view",
      "type": "function"
    },
    {
      "inputs": [
        {
          "internalType": "bytes32",
          "name": "linkKey",
          "type": "bytes32"
        }
      ],
      "name": "getLinkingNote",
      "outputs": [
        {
          "components": [
            {
              "internalType": "uint256",
              "name": "characterId",
              "type": "uint256"
            },
            {
              "internalType": "uint256",
              "name": "noteId",
              "type": "uint256"
            }
          ],
          "internalType": "struct DataTypes.NoteStruct",
          "name": "",
          "type": "tuple"
        }
      ],
      "stateMutability": "view",
      "type": "function"
    },
    {
      "inputs": [
        {
          "internalType": "uint256",
          "name": "fromCharacterId",
          "type": "uint256"
        },
        {
          "internalType": "bytes32",
          "name": "linkType",
          "type": "bytes32"
        }
      ],
      "name": "getLinkingNotes",
      "outputs": [
        {
          "components": [
            {
              "internalType": "bytes32",
              "name": "linkItemType",
              "type": "bytes32"
            },
            {
              "internalType": "bytes32",
              "name": "linkKey",
              "type": "bytes32"
            },
            {
              "internalType": "string",
              "name": "contentUri",
              "type": "string"
            },
            {
              "internalType": "address",
              "name": "linkModule",
              "type": "address"
            },
            {
              "internalType": "address",
              "name": "mintModule",
              "type": "address"
            },
            {
              "internalType": "address",
              "name": "mintNFT",
              "type": "address"
            },
            {
              "internalType": "bool",
              "name": "deleted",
              "type": "bool"
            },
            {
              "internalType": "bool",
              "name": "locked",
              "type": "bool"
            }
          ],
          "internalType": "struct DataTypes.Note[]",
          "name": "results",
          "type": "tuple[]"
        }
      ],
      "stateMutability": "view",
      "type": "function"
    },
    {
      "inputs": [
        {
          "internalType": "uint256",
          "name": "characterId",
          "type": "uint256"
        },
        {
          "internalType": "uint256",
          "name": "offset",
          "type": "uint256"
        },
        {
          "internalType": "uint256",
          "name": "limit",
          "type": "uint256"
        }
      ],
      "name": "getNotesByCharacterId",
      "outputs": [
        {
          "components": [
            {
              "internalType": "bytes32",
              "name": "linkItemType",
              "type": "bytes32"
            },
            {
              "internalType": "bytes32",
              "name": "linkKey",
              "type": "bytes32"
            },
            {
              "internalType": "string",
              "name": "contentUri",
              "type": "string"
            },
            {
              "internalType": "address",
              "name": "linkModule",
              "type": "address"
            },
            {
              "internalType": "address",
              "name": "mintModule",
              "type": "address"
            },
            {
              "internalType": "address",
              "name": "mintNFT",
              "type": "address"
            },
            {
              "internalType": "bool",
              "name": "deleted",
              "type": "bool"
            },
            {
              "internalType": "bool",
              "name": "locked",
              "type": "bool"
            }
          ],
          "internalType": "struct DataTypes.Note[]",
          "name": "results",
          "type": "tuple[]"
        }
      ],
      "stateMutability": "view",
      "type": "function"
    },
    {
      "inputs": [
        {
          "internalType": "address",
          "name": "_web3Entry",
          "type": "address"
        },
        {
          "internalType": "address",
          "name": "_linklist",
          "type": "address"
        }
      ],
      "name": "initialize",
      "outputs": [],
      "stateMutability": "nonpayable",
      "type": "function"
    },
    {
      "inputs": [
        {
          "components": [
            {
              "internalType": "uint256",
              "name": "fromCharacterId",
              "type": "uint256"
            },
            {
              "internalType": "uint256[]",
              "name": "toCharacterIds",
              "type": "uint256[]"
            },
            {
              "internalType": "bytes[]",
              "name": "data",
              "type": "bytes[]"
            },
            {
              "internalType": "address[]",
              "name": "toAddresses",
              "type": "address[]"
            },
            {
              "internalType": "bytes32",
              "name": "linkType",
              "type": "bytes32"
            }
          ],
          "internalType": "struct DataTypes.linkCharactersInBatchData",
          "name": "vars",
          "type": "tuple"
        }
      ],
      "name": "linkCharactersInBatch",
      "outputs": [],
      "stateMutability": "nonpayable",
      "type": "function"
    },
    {
      "inputs": [],
      "name": "linklist",
      "outputs": [
        {
          "internalType": "address",
          "name": "",
          "type": "address"
        }
      ],
      "stateMutability": "view",
      "type": "function"
    },
    {
      "inputs": [],
      "name": "web3Entry",
      "outputs": [
        {
          "internalType": "address",
          "name": "",
          "type": "address"
        }
      ],
      "stateMutability": "view",
      "type": "function"
    }
  ],
  "bytecode": {
    "object": "0x608060405234801561001057600080fd5b50611f44806100206000396000f3fe608060405234801561001057600080fd5b506004361061010b5760003560e01c80635440522b116100a25780638654af27116100715780638654af2714610287578063d55a0060146102a3578063d85d04f414610287578063dfc1e2bf146102b6578063e1332272146102c957600080fd5b80635440522b146102075780635f799cc61461022757806362c3ed301461024757806376ae90ef1461026757600080fd5b80632c422599116100de5780632c422599146101a05780633e7cb539146101b3578063485cc955146101c45780634a7906b9146101d957600080fd5b806306bee8d4146101105780630f9b729c146101405780631964a421146101605780632260c7d214610180575b600080fd5b600154610123906001600160a01b031681565b6040516001600160a01b0390911681526020015b60405180910390f35b61015361014e366004611339565b6102e2565b60405161013791906113c1565b61017361016e36600461148c565b6104ab565b60405161013791906114ae565b61019361018e36600461148c565b6105a4565b6040516101379190611510565b6101536101ae36600461148c565b610693565b6101236101c1366004611554565b90565b6101d76101d2366004611585565b6108ee565b005b6101ec6101e7366004611554565b610a3f565b60408051825181526020928301519281019290925201610137565b61021a610215366004611554565b610abd565b60405161013791906115be565b61023a610235366004611554565b610b3b565b60405161013791906115de565b61025a61025536600461148c565b610bad565b60405161013791906115f1565b61027a61027536600461148c565b610c9c565b6040516101379190611651565b6102956101c1366004611554565b604051908152602001610137565b6101d76102b1366004611692565b610d8b565b6101936102c436600461148c565b611044565b600054610123906201000090046001600160a01b031681565b6000805460405163dabb053160e01b815260048101869052606092916201000090046001600160a01b03169063dabb053190602401600060405180830381865afa158015610334573d6000803e3d6000fd5b505050506040513d6000823e601f3d908101601f1916820160405261035c91908101906117fa565b6060015190506103758361037086846118d6565b61125e565b9250826001600160401b0381111561038f5761038f6116cc565b6040519080825280602002602001820160405280156103c857816020015b6103b56112f4565b8152602001906001900390816103ad5790505b5091508084106103d857506104a4565b835b6103e484866118ed565b8110156104a1576000546040516301b6923d60e71b81526004810188905260248101839052620100009091046001600160a01b03169063db491e8090604401600060405180830381865afa158015610440573d6000803e3d6000fd5b505050506040513d6000823e601f3d908101601f191682016040526104689190810190611915565b8361047387846118d6565b81518110610483576104836119eb565b6020026020010181905250808061049990611a01565b9150506103da565b50505b9392505050565b60008054604051636b87086360e11b81526004810185905260248101849052606092916201000090046001600160a01b03169063d70e10c690604401602060405180830381865afa158015610504573d6000803e3d6000fd5b505050506040513d601f19601f820116820180604052508101906105289190611a1c565b60015460405163732795d560e11b8152600481018390529192506001600160a01b03169063e64f2baa90602401600060405180830381865afa158015610572573d6000803e3d6000fd5b505050506040513d6000823e601f3d908101601f1916820160405261059a9190810190611a58565b9150505b92915050565b60008054604051636b87086360e11b81526004810185905260248101849052606092916201000090046001600160a01b03169063d70e10c690604401602060405180830381865afa1580156105fd573d6000803e3d6000fd5b505050506040513d601f19601f820116820180604052508101906106219190611a1c565b60015460405163ed6223cf60e01b8152600481018390529192506001600160a01b03169063ed6223cf90602401600060405180830381865afa15801561066b573d6000803e3d6000fd5b505050506040513d6000823e601f3d908101601f1916820160405261059a9190810190611b0d565b60008054604051636b87086360e11b81526004810185905260248101849052606092916201000090046001600160a01b03169063d70e10c690604401602060405180830381865afa1580156106ec573d6000803e3d6000fd5b505050506040513d601f19601f820116820180604052508101906107109190611a1c565b600154604051635e9f678b60e01b8152600481018390529192506000916001600160a01b0390911690635e9f678b90602401600060405180830381865afa15801561075f573d6000803e3d6000fd5b505050506040513d6000823e601f3d908101601f191682016040526107879190810190611bcd565b905080516001600160401b038111156107a2576107a26116cc565b6040519080825280602002602001820160405280156107db57816020015b6107c86112f4565b8152602001906001900390816107c05790505b50925060005b81518110156108e557600060029054906101000a90046001600160a01b03166001600160a01b031663db491e80838381518110610820576108206119eb565b60200260200101516000015184848151811061083e5761083e6119eb565b6020026020010151602001516040518363ffffffff1660e01b8152600401610870929190918252602082015260400190565b600060405180830381865afa15801561088d573d6000803e3d6000fd5b505050506040513d6000823e601f3d908101601f191682016040526108b59190810190611915565b8482815181106108c7576108c76119eb565b602002602001018190525080806108dd90611a01565b9150506107e1565b50505092915050565b600054610100900460ff161580801561090e5750600054600160ff909116105b806109285750303b158015610928575060005460ff166001145b6109905760405162461bcd60e51b815260206004820152602e60248201527f496e697469616c697a61626c653a20636f6e747261637420697320616c72656160448201526d191e481a5b9a5d1a585b1a5e995960921b60648201526084015b60405180910390fd5b6000805460ff1916600117905580156109b3576000805461ff0019166101001790555b6000805462010000600160b01b031916620100006001600160a01b038681169190910291909117909155600180546001600160a01b0319169184169190911790558015610a3a576000805461ff0019169055604051600181527f7f26b83ff96e1f2b6a682f133852f6798a09c465da95921460cefb38474024989060200160405180910390a15b505050565b604080518082018252600080825260208201526001549151634a7906b960e01b81526004810184905290916001600160a01b031690634a7906b9906024016040805180830381865afa158015610a99573d6000803e3d6000fd5b505050506040513d601f19601f8201168201806040525081019061059e9190611c5d565b604080518082018252600080825260208201526001549151635440522b60e01b81526004810184905290916001600160a01b031690635440522b906024016040805180830381865afa158015610b17573d6000803e3d6000fd5b505050506040513d601f19601f8201168201806040525081019061059e9190611cb4565b600154604051632fbcce6360e11b8152600481018390526060916001600160a01b031690635f799cc690602401600060405180830381865afa158015610b85573d6000803e3d6000fd5b505050506040513d6000823e601f3d908101601f1916820160405261059e9190810190611cd0565b60008054604051636b87086360e11b81526004810185905260248101849052606092916201000090046001600160a01b03169063d70e10c690604401602060405180830381865afa158015610c06573d6000803e3d6000fd5b505050506040513d601f19601f82011682018060405250810190610c2a9190611a1c565b600154604051639037c0f960e01b8152600481018390529192506001600160a01b031690639037c0f990602401600060405180830381865afa158015610c74573d6000803e3d6000fd5b505050506040513d6000823e601f3d908101601f1916820160405261059a9190810190611d04565b60008054604051636b87086360e11b81526004810185905260248101849052606092916201000090046001600160a01b03169063d70e10c690604401602060405180830381865afa158015610cf5573d6000803e3d6000fd5b505050506040513d601f19601f82011682018060405250810190610d199190611a1c565b600154604051635c369ec360e01b8152600481018390529192506001600160a01b031690635c369ec390602401600060405180830381865afa158015610d63573d6000803e3d6000fd5b505050506040513d6000823e601f3d908101601f1916820160405261059a9190810190611d94565b610d986040820182611e22565b9050610da76020830183611e22565b905014610dec5760405162461bcd60e51b8152602060048201526013602482015272082e4e4c2f298cadccee8d09ad2e6dac2e8c6d606b1b6044820152606401610987565b60005b610dfc6020830183611e22565b9050811015610f3457600054604080516080810190915283358152620100009091046001600160a01b03169063188b04b390602080820190610e4090870187611e22565b86818110610e5057610e506119eb565b90506020020135815260200185608001358152602001858060400190610e769190611e22565b86818110610e8657610e866119eb565b9050602002810190610e989190611e72565b8080601f01602080910402602001604051908101604052809392919081815260200183838082843760009201919091525050509152506040516001600160e01b031960e084901b168152610eef9190600401611eb8565b600060405180830381600087803b158015610f0957600080fd5b505af1158015610f1d573d6000803e3d6000fd5b505050508080610f2c90611a01565b915050610def565b5060005b610f456060830183611e22565b90508110156110405760005460408051606080820190925284358152620100009092046001600160a01b03169163f6479d77916020820190610f8990870187611e22565b86818110610f9957610f996119eb565b9050602002016020810190610fae9190611ef1565b6001600160a01b0390811682526080870135602092830152604080516001600160e01b031960e087901b1681528451600482015292840151909116602483015291909101516044820152606401600060405180830381600087803b15801561101557600080fd5b505af1158015611029573d6000803e3d6000fd5b50505050808061103890611a01565b915050610f38565b5050565b60008054604051636b87086360e11b81526004810185905260248101849052606092916201000090046001600160a01b03169063d70e10c690604401602060405180830381865afa15801561109d573d6000803e3d6000fd5b505050506040513d601f19601f820116820180604052508101906110c19190611a1c565b60015460405163ba27f58d60e01b8152600481018390529192506000916001600160a01b039091169063ba27f58d90602401600060405180830381865afa158015611110573d6000803e3d6000fd5b505050506040513d6000823e601f3d908101601f191682016040526111389190810190611b0d565b80519091506000805b828110156111905761116b84828151811061115e5761115e6119eb565b6020026020010151611274565b1561117e578161117a81611a01565b9250505b8061118881611a01565b915050611141565b50806001600160401b038111156111a9576111a96116cc565b6040519080825280602002602001820160405280156111d2578160200160208202803683370190505b5094506000805b83811015611252576111f685828151811061115e5761115e6119eb565b156112405784818151811061120d5761120d6119eb565b6020026020010151878381518110611227576112276119eb565b60209081029190910101528161123c81611a01565b9250505b8061124a81611a01565b9150506111d9565b50505050505092915050565b600081831061126d57816104a4565b5090919050565b6000805460405163dabb053160e01b815260048101849052620100009091046001600160a01b03169063dabb053190602401600060405180830381865afa1580156112c3573d6000803e3d6000fd5b505050506040513d6000823e601f3d908101601f191682016040526112eb91908101906117fa565b51151592915050565b604080516101008101825260008082526020820181905260609282018390529181018290526080810182905260a0810182905260c0810182905260e081019190915290565b60008060006060848603121561134e57600080fd5b505081359360208301359350604090920135919050565b60005b83811015611380578181015183820152602001611368565b8381111561138f576000848401525b50505050565b600081518084526113ad816020860160208601611365565b601f01601f19169290920160200192915050565b60006020808301818452808551808352604092508286019150828160051b87010184880160005b8381101561147e57603f19898403018552815161010081518552888201518986015287820151818987015261141f82870182611395565b6060848101516001600160a01b039081169189019190915260808086015182169089015260a0808601519091169088015260c08085015115159088015260e09384015115159390960192909252505093860193908601906001016113e8565b509098975050505050505050565b6000806040838503121561149f57600080fd5b50508035926020909101359150565b6000602080830181845280855180835260408601915060408160051b870101925083870160005b8281101561150357603f198886030184526114f1858351611395565b945092850192908501906001016114d5565b5092979650505050505050565b6020808252825182820181905260009190848201906040850190845b818110156115485783518352928401929184019160010161152c565b50909695505050505050565b60006020828403121561156657600080fd5b5035919050565b6001600160a01b038116811461158257600080fd5b50565b6000806040838503121561159857600080fd5b82356115a38161156d565b915060208301356115b38161156d565b809150509250929050565b81516001600160a01b03168152602080830151908201526040810161059e565b6020815260006104a46020830184611395565b602080825282518282018190526000919060409081850190868401855b828110156116445761163484835180516001600160a01b03168252602090810151910152565b928401929085019060010161160e565b5091979650505050505050565b6020808252825182820181905260009190848201906040850190845b818110156115485783516001600160a01b03168352928401929184019160010161166d565b6000602082840312156116a457600080fd5b81356001600160401b038111156116ba57600080fd5b820160a081850312156104a457600080fd5b634e487b7160e01b600052604160045260246000fd5b60405160c081016001600160401b0381118282101715611704576117046116cc565b60405290565b60405161010081016001600160401b0381118282101715611704576117046116cc565b604080519081016001600160401b0381118282101715611704576117046116cc565b604051601f8201601f191681016001600160401b0381118282101715611777576117776116cc565b604052919050565b600082601f83011261179057600080fd5b81516001600160401b038111156117a9576117a96116cc565b6117bc601f8201601f191660200161174f565b8181528460208386010111156117d157600080fd5b6117e2826020830160208701611365565b949350505050565b80516117f58161156d565b919050565b60006020828403121561180c57600080fd5b81516001600160401b038082111561182357600080fd5b9083019060c0828603121561183757600080fd5b61183f6116e2565b8251815260208301518281111561185557600080fd5b6118618782860161177f565b60208301525060408301518281111561187957600080fd5b6118858782860161177f565b604083015250606083015160608201526118a1608084016117ea565b60808201526118b260a084016117ea565b60a082015295945050505050565b634e487b7160e01b600052601160045260246000fd5b6000828210156118e8576118e86118c0565b500390565b60008219821115611900576119006118c0565b500190565b805180151581146117f557600080fd5b60006020828403121561192757600080fd5b81516001600160401b038082111561193e57600080fd5b90830190610100828603121561195357600080fd5b61195b61170a565b825181526020830151602082015260408301518281111561197b57600080fd5b6119878782860161177f565b604083015250611999606084016117ea565b60608201526119aa608084016117ea565b60808201526119bb60a084016117ea565b60a08201526119cc60c08401611905565b60c08201526119dd60e08401611905565b60e082015295945050505050565b634e487b7160e01b600052603260045260246000fd5b6000600019821415611a1557611a156118c0565b5060010190565b600060208284031215611a2e57600080fd5b5051919050565b60006001600160401b03821115611a4e57611a4e6116cc565b5060051b60200190565b60006020808385031215611a6b57600080fd5b82516001600160401b0380821115611a8257600080fd5b818501915085601f830112611a9657600080fd5b8151611aa9611aa482611a35565b61174f565b81815260059190911b83018401908481019088831115611ac857600080fd5b8585015b83811015611b0057805185811115611ae45760008081fd5b611af28b89838a010161177f565b845250918601918601611acc565b5098975050505050505050565b60006020808385031215611b2057600080fd5b82516001600160401b03811115611b3657600080fd5b8301601f81018513611b4757600080fd5b8051611b55611aa482611a35565b81815260059190911b82018301908381019087831115611b7457600080fd5b928401925b82841015611b9257835182529284019290840190611b79565b979650505050505050565b600060408284031215611baf57600080fd5b611bb761172d565b9050815181526020820151602082015292915050565b60006020808385031215611be057600080fd5b82516001600160401b03811115611bf657600080fd5b8301601f81018513611c0757600080fd5b8051611c15611aa482611a35565b81815260069190911b82018301908381019087831115611c3457600080fd5b928401925b82841015611b9257611c4b8885611b9d565b82528482019150604084019350611c39565b600060408284031215611c6f57600080fd5b6104a48383611b9d565b600060408284031215611c8b57600080fd5b611c9361172d565b90508151611ca08161156d565b808252506020820151602082015292915050565b600060408284031215611cc657600080fd5b6104a48383611c79565b600060208284031215611ce257600080fd5b81516001600160401b03811115611cf857600080fd5b61059a8482850161177f565b60006020808385031215611d1757600080fd5b82516001600160401b03811115611d2d57600080fd5b8301601f81018513611d3e57600080fd5b8051611d4c611aa482611a35565b81815260069190911b82018301908381019087831115611d6b57600080fd5b928401925b82841015611b9257611d828885611c79565b82528482019150604084019350611d70565b60006020808385031215611da757600080fd5b82516001600160401b03811115611dbd57600080fd5b8301601f81018513611dce57600080fd5b8051611ddc611aa482611a35565b81815260059190911b82018301908381019087831115611dfb57600080fd5b928401925b82841015611b92578351611e138161156d565b82529284019290840190611e00565b6000808335601e19843603018112611e3957600080fd5b8301803591506001600160401b03821115611e5357600080fd5b6020019150600581901b3603821315611e6b57600080fd5b9250929050565b6000808335601e19843603018112611e8957600080fd5b8301803591506001600160401b03821115611ea357600080fd5b602001915036819003821315611e6b57600080fd5b602081528151602082015260208201516040820152604082015160608201526000606083015160808084015261059a60a0840182611395565b600060208284031215611f0357600080fd5b81356104a48161156d56fea2646970667358221220f044491698df7fbec8ad0329739c3d399ab73e42e5af686dba802cca760e9fde64736f6c634300080a0033",
    "linkReferences": {}
  },
  "methodIdentifiers": {
    "getLinkingAddress(bytes32)": "3e7cb539",
    "getLinkingAddresses(uint256,bytes32)": "76ae90ef",
    "getLinkingAnyUri(bytes32)": "5f799cc6",
    "getLinkingAnyUris(uint256,bytes32)": "1964a421",
    "getLinkingCharacterId(bytes32)": "d85d04f4",
    "getLinkingCharacterIds(uint256,bytes32)": "dfc1e2bf",
    "getLinkingERC721(bytes32)": "5440522b",
    "getLinkingERC721s(uint256,bytes32)": "62c3ed30",
    "getLinkingLinklistId(bytes32)": "8654af27",
    "getLinkingLinklistIds(uint256,bytes32)": "2260c7d2",
    "getLinkingNote(bytes32)": "4a7906b9",
    "getLinkingNotes(uint256,bytes32)": "2c422599",
    "getNotesByCharacterId(uint256,uint256,uint256)": "0f9b729c",
    "initialize(address,address)": "485cc955",
    "linkCharactersInBatch((uint256,uint256[],bytes[],address[],bytes32))": "d55a0060",
    "linklist()": "06bee8d4",
    "web3Entry()": "e1332272"
  },
  "id": 57
}