{
  "abi": [
    {
      "inputs": [
        {
          "internalType": "address",
          "name": "web3Entry",
          "type": "address"
        }
      ],
      "stateMutability": "nonpayable",
      "type": "constructor"
    },
    {
      "inputs": [],
      "name": "Web3Entry",
      "outputs": [
        {
          "internalType": "address",
          "name": "",
          "type": "address"
        }
      ],
      "stateMutability": "view",
      "type": "function"
    },
    {
      "inputs": [
        {
          "internalType": "uint256",
          "name": "characterId",
          "type": "uint256"
        },
        {
          "internalType": "uint256",
          "name": "noteId",
          "type": "uint256"
        },
        {
          "internalType": "address[]",
          "name": "addresses",
          "type": "address[]"
        },
        {
          "internalType": "bool[]",
          "name": "toApprove",
          "type": "bool[]"
        }
      ],
      "name": "approve",
      "outputs": [],
      "stateMutability": "nonpayable",
      "type": "function"
    },
    {
      "inputs": [
        {
          "internalType": "uint256",
          "name": "characterId",
          "type": "uint256"
        },
        {
          "internalType": "uint256",
          "name": "noteId",
          "type": "uint256"
        },
        {
          "internalType": "bytes",
          "name": "data",
          "type": "bytes"
        }
      ],
      "name": "initializeMintModule",
      "outputs": [
        {
          "internalType": "bytes",
          "name": "",
          "type": "bytes"
        }
      ],
      "stateMutability": "nonpayable",
      "type": "function"
    },
    {
      "inputs": [
        {
          "internalType": "address",
          "name": "characterOwner",
          "type": "address"
        },
        {
          "internalType": "uint256",
          "name": "characterId",
          "type": "uint256"
        },
        {
          "internalType": "uint256",
          "name": "noteId",
          "type": "uint256"
        },
        {
          "internalType": "address",
          "name": "toCheck",
          "type": "address"
        }
      ],
      "name": "isApproved",
      "outputs": [
        {
          "internalType": "bool",
          "name": "",
          "type": "bool"
        }
      ],
      "stateMutability": "view",
      "type": "function"
    },
    {
      "inputs": [
        {
          "internalType": "address",
          "name": "to",
          "type": "address"
        },
        {
          "internalType": "uint256",
          "name": "characterId",
          "type": "uint256"
        },
        {
          "internalType": "uint256",
          "name": "noteId",
          "type": "uint256"
        },
        {
          "internalType": "bytes",
          "name": "data",
          "type": "bytes"
        }
      ],
      "name": "processMint",
      "outputs": [],
      "stateMutability": "nonpayable",
      "type": "function"
    }
  ],
  "bytecode": {
    "object": "0x60a060405234801561001057600080fd5b50604051610b32380380610b3283398101604081905261002f9161008f565b806001600160a01b03811661007d5760405162461bcd60e51b815260206004820152601060248201526f496e76616c696457656233456e74727960801b604482015260640160405180910390fd5b6001600160a01b0316608052506100bf565b6000602082840312156100a157600080fd5b81516001600160a01b03811681146100b857600080fd5b9392505050565b608051610a3d6100f56000396000818160b20152818161016b015281816102c701528181610341015261049e0152610a3d6000f3fe608060405234801561001057600080fd5b50600436106100575760003560e01c80637dd37a9e1461005c5780637f20dc211461008557806398f346b81461009a578063c5a5ed51146100ad578063c8551f9f146100ec575b600080fd5b61006f61006a366004610667565b610147565b60405161007c91906106ba565b60405180910390f35b610098610093366004610737565b6102bc565b005b6100986100a83660046107e6565b610442565b6100d47f000000000000000000000000000000000000000000000000000000000000000081565b6040516001600160a01b03909116815260200161007c565b6101376100fa366004610869565b6001600160a01b03938416600090815260208181526040808320958352948152848220938252928352838120919094168452905290205460ff1690565b604051901515815260200161007c565b6040516331a9108f60e11b8152600481018590526060906000906001600160a01b037f00000000000000000000000000000000000000000000000000000000000000001690636352211e90602401602060405180830381865afa1580156101b2573d6000803e3d6000fd5b505050506040513d601f19601f820116820180604052508101906101d691906108b3565b9050821561027b5760006101ec848601866108ed565b805190915060005b81811015610277576001600160a01b0384166000908152602081815260408083208c845282528083208b8452909152812084516001929086908590811061023d5761023d6109b2565b6020908102919091018101516001600160a01b03168252810191909152604001600020805460ff19169115159190911790556001016101f4565b5050505b83838080601f016020809104026020016040519081016040528093929190818152602001838380828437600092019190915250929998505050505050505050565b336001600160a01b037f000000000000000000000000000000000000000000000000000000000000000016146103285760405162461bcd60e51b815260206004820152600c60248201526b4e6f7457656233456e74727960a01b60448201526064015b60405180910390fd5b6040516331a9108f60e11b8152600481018590526000907f00000000000000000000000000000000000000000000000000000000000000006001600160a01b031690636352211e90602401602060405180830381865afa158015610390573d6000803e3d6000fd5b505050506040513d601f19601f820116820180604052508101906103b491906108b3565b6001600160a01b038082166000908152602081815260408083208a845282528083208984528252808320938b168352929052205490915060ff1661043a5760405162461bcd60e51b815260206004820152601f60248201527f417070726f76616c4d696e744d6f64756c653a204e6f74417070726f76656400604482015260640161031f565b505050505050565b8281146104855760405162461bcd60e51b8152602060048201526011602482015270125b9a5d14185c985b5cd25b9d985b1a59607a1b604482015260640161031f565b6040516331a9108f60e11b8152600481018790526000907f00000000000000000000000000000000000000000000000000000000000000006001600160a01b031690636352211e90602401602060405180830381865afa1580156104ed573d6000803e3d6000fd5b505050506040513d601f19601f8201168201806040525081019061051191906108b3565b9050336001600160a01b0382161461055f5760405162461bcd60e51b81526020600482015260116024820152702737ba21b430b930b1ba32b927bbb732b960791b604482015260640161031f565b8360005b818110156106135784848281811061057d5761057d6109b2565b905060200201602081019061059291906109c8565b6001600160a01b0384166000908152602081815260408083208d845282528083208c84529091528120908989858181106105ce576105ce6109b2565b90506020020160208101906105e391906109ea565b6001600160a01b031681526020810191909152604001600020805460ff1916911515919091179055600101610563565b505050505050505050565b60008083601f84011261063057600080fd5b50813567ffffffffffffffff81111561064857600080fd5b60208301915083602082850101111561066057600080fd5b9250929050565b6000806000806060858703121561067d57600080fd5b8435935060208501359250604085013567ffffffffffffffff8111156106a257600080fd5b6106ae8782880161061e565b95989497509550505050565b600060208083528351808285015260005b818110156106e7578581018301518582016040015282016106cb565b818111156106f9576000604083870101525b50601f01601f1916929092016040019392505050565b6001600160a01b038116811461072457600080fd5b50565b80356107328161070f565b919050565b60008060008060006080868803121561074f57600080fd5b853561075a8161070f565b94506020860135935060408601359250606086013567ffffffffffffffff81111561078457600080fd5b6107908882890161061e565b969995985093965092949392505050565b60008083601f8401126107b357600080fd5b50813567ffffffffffffffff8111156107cb57600080fd5b6020830191508360208260051b850101111561066057600080fd5b600080600080600080608087890312156107ff57600080fd5b8635955060208701359450604087013567ffffffffffffffff8082111561082557600080fd5b6108318a838b016107a1565b9096509450606089013591508082111561084a57600080fd5b5061085789828a016107a1565b979a9699509497509295939492505050565b6000806000806080858703121561087f57600080fd5b843561088a8161070f565b9350602085013592506040850135915060608501356108a88161070f565b939692955090935050565b6000602082840312156108c557600080fd5b81516108d08161070f565b9392505050565b634e487b7160e01b600052604160045260246000fd5b6000602080838503121561090057600080fd5b823567ffffffffffffffff8082111561091857600080fd5b818501915085601f83011261092c57600080fd5b81358181111561093e5761093e6108d7565b8060051b604051601f19603f83011681018181108582111715610963576109636108d7565b60405291825284820192508381018501918883111561098157600080fd5b938501935b828510156109a65761099785610727565b84529385019392850192610986565b98975050505050505050565b634e487b7160e01b600052603260045260246000fd5b6000602082840312156109da57600080fd5b813580151581146108d057600080fd5b6000602082840312156109fc57600080fd5b81356108d08161070f56fea2646970667358221220381ad8995864bbde6df2e169085aaebd20f4bce4661109d5d0ef37d665aa15d664736f6c634300080a0033",
    "linkReferences": {}
  },
  "methodIdentifiers": {
    "Web3Entry()": "c5a5ed51",
    "approve(uint256,uint256,address[],bool[])": "98f346b8",
    "initializeMintModule(uint256,uint256,bytes)": "7dd37a9e",
    "isApproved(address,uint256,uint256,address)": "c8551f9f",
    "processMint(address,uint256,uint256,bytes)": "7f20dc21"
  },
  "id": 65
}