{
  "abi": [
    {
      "inputs": [],
      "name": "resolver",
      "outputs": [
        {
          "internalType": "address",
          "name": "",
          "type": "address"
        }
      ],
      "stateMutability": "view",
      "type": "function"
    }
  ],
  "bytecode": {
    "object": "0x6080604052348015600f57600080fd5b5060918061001e6000396000f3fe6080604052348015600f57600080fd5b506004361060285760003560e01c806304f3bcec14602d575b600080fd5b600254603f906001600160a01b031681565b6040516001600160a01b03909116815260200160405180910390f3fea2646970667358221220e29a6792ecc0f0fe5645d03f8303a7fb1a3e44efd2d60bfe573fc09960051f2964736f6c634300080a0033",
    "linkReferences": {}
  },
  "methodIdentifiers": {
    "resolver()": "04f3bcec"
  },
  "id": 39
}