{
  "abi": [
    {
      "inputs": [],
      "name": "Web3Entry",
      "outputs": [
        {
          "internalType": "address",
          "name": "",
          "type": "address"
        }
      ],
      "stateMutability": "view",
      "type": "function"
    }
  ],
  "bytecode": {
    "object": "0x6080604052348015600f57600080fd5b5060918061001e6000396000f3fe6080604052348015600f57600080fd5b506004361060285760003560e01c8063c5a5ed5114602d575b600080fd5b600054603f906001600160a01b031681565b6040516001600160a01b03909116815260200160405180910390f3fea2646970667358221220388a321aec9818094ffb557e2596d3907df7ec14c05f676b0a3293ba235b982664736f6c634300080a0033",
    "linkReferences": {}
  },
  "methodIdentifiers": {
    "Web3Entry()": "c5a5ed51"
  },
  "id": 67
}