{
  "abi": [
    {
      "anonymous": false,
      "inputs": [
        {
          "indexed": true,
          "internalType": "address",
          "name": "previousOwner",
          "type": "address"
        },
        {
          "indexed": true,
          "internalType": "address",
          "name": "newOwner",
          "type": "address"
        }
      ],
      "name": "OwnershipTransferred",
      "type": "event"
    },
    {
      "inputs": [
        {
          "internalType": "string[]",
          "name": "labels",
          "type": "string[]"
        },
        {
          "internalType": "address[]",
          "name": "owners",
          "type": "address[]"
        }
      ],
      "name": "addENSRecords",
      "outputs": [],
      "stateMutability": "nonpayable",
      "type": "function"
    },
    {
      "inputs": [
        {
          "internalType": "string[]",
          "name": "labels",
          "type": "string[]"
        },
        {
          "internalType": "address[]",
          "name": "owners",
          "type": "address[]"
        }
      ],
      "name": "addRNSRecords",
      "outputs": [],
      "stateMutability": "nonpayable",
      "type": "function"
    },
    {
      "inputs": [
        {
          "internalType": "string[]",
          "name": "labels",
          "type": "string[]"
        }
      ],
      "name": "deleteENSRecords",
      "outputs": [],
      "stateMutability": "nonpayable",
      "type": "function"
    },
    {
      "inputs": [
        {
          "internalType": "string[]",
          "name": "labels",
          "type": "string[]"
        }
      ],
      "name": "deleteRNSRecords",
      "outputs": [],
      "stateMutability": "nonpayable",
      "type": "function"
    },
    {
      "inputs": [
        {
          "internalType": "string",
          "name": "label",
          "type": "string"
        }
      ],
      "name": "getENSRecord",
      "outputs": [
        {
          "internalType": "address",
          "name": "",
          "type": "address"
        }
      ],
      "stateMutability": "view",
      "type": "function"
    },
    {
      "inputs": [
        {
          "internalType": "string",
          "name": "label",
          "type": "string"
        }
      ],
      "name": "getRNSRecord",
      "outputs": [
        {
          "internalType": "address",
          "name": "",
          "type": "address"
        }
      ],
      "stateMutability": "view",
      "type": "function"
    },
    {
      "inputs": [],
      "name": "getTotalENSCount",
      "outputs": [
        {
          "internalType": "uint256",
          "name": "",
          "type": "uint256"
        }
      ],
      "stateMutability": "view",
      "type": "function"
    },
    {
      "inputs": [],
      "name": "getTotalRNSCount",
      "outputs": [
        {
          "internalType": "uint256",
          "name": "",
          "type": "uint256"
        }
      ],
      "stateMutability": "view",
      "type": "function"
    },
    {
      "inputs": [],
      "name": "owner",
      "outputs": [
        {
          "internalType": "address",
          "name": "",
          "type": "address"
        }
      ],
      "stateMutability": "view",
      "type": "function"
    },
    {
      "inputs": [],
      "name": "renounceOwnership",
      "outputs": [],
      "stateMutability": "nonpayable",
      "type": "function"
    },
    {
      "inputs": [
        {
          "internalType": "address",
          "name": "newOwner",
          "type": "address"
        }
      ],
      "name": "transferOwnership",
      "outputs": [],
      "stateMutability": "nonpayable",
      "type": "function"
    }
  ],
  "bytecode": {
    "object": "0x608060405234801561001057600080fd5b5061001a3361001f565b61006f565b600080546001600160a01b038381166001600160a01b0319831681178455604051919092169283917f8be0079c531659141344cd1fd0a4f28419497f9722a3daafe3b4186f6b6457e09190a35050565b610a688061007e6000396000f3fe608060405234801561001057600080fd5b50600436106100a95760003560e01c80636307b06f116100715780636307b06f1461012b578063715018a6146101335780637c7fe9c11461013b5780638da5cb5b1461014e578063f2fde38b1461015f578063fef103f91461017257600080fd5b80632e642506146100ae578063354faeb0146100c35780633d600714146100f3578063599d32cd14610106578063611a348014610119575b600080fd5b6100c16100bc366004610711565b610185565b005b6100d66100d136600461077d565b6101dc565b6040516001600160a01b0390911681526020015b60405180910390f35b6100c1610101366004610711565b610217565b6100d661011436600461077d565b610265565b6003545b6040519081526020016100ea565b60045461011d565b6100c16102a0565b6100c16101493660046107ef565b6102b4565b6000546001600160a01b03166100d6565b6100c161016d366004610831565b6102cc565b6100c16101803660046107ef565b61034a565b61018d61035e565b6101d661019a84866108a8565b838380806020026020016040519081016040528093929190818152602001838360200280828437600092019190915250600192506103b8915050565b50505050565b60008083836040516101ef92919061097d565b60408051918290039091206000908152600260205220546001600160a01b0316949350505050565b61021f61035e565b6101d661022c84866108a8565b838380806020026020016040519081016040528093929190818152602001838360200280828437600092018290525092506103b8915050565b600080838360405161027892919061097d565b60408051918290039091206000908152600160205220546001600160a01b0316949350505050565b6102a861035e565b6102b260006105af565b565b6102bc61035e565b6102c8828260016105ff565b5050565b6102d461035e565b6001600160a01b03811661033e5760405162461bcd60e51b815260206004820152602660248201527f4f776e61626c653a206e6577206f776e657220697320746865207a65726f206160448201526564647265737360d01b60648201526084015b60405180910390fd5b610347816105af565b50565b61035261035e565b6102c8828260006105ff565b6000546001600160a01b031633146102b25760405162461bcd60e51b815260206004820181905260248201527f4f776e61626c653a2063616c6c6572206973206e6f7420746865206f776e65726044820152606401610335565b81518351146103ff5760405162461bcd60e51b8152602060048201526013602482015272082e4e4c2f298cadccee8d09ad2e6dac2e8c6d606b1b6044820152606401610335565b60005b83518110156101d657600084828151811061041f5761041f61098d565b602002602001015180519060200120905082156104eb576000818152600160205260409020546001600160a01b03161561048a5760405162461bcd60e51b815260206004820152600c60248201526b5265636f726445786973747360a01b6044820152606401610335565b83828151811061049c5761049c61098d565b602090810291909101810151600083815260019092526040822080546001600160a01b0319166001600160a01b0390921691909117905560038054916104e1836109b9565b919050555061059c565b6000818152600260205260409020546001600160a01b03161561053f5760405162461bcd60e51b815260206004820152600c60248201526b5265636f726445786973747360a01b6044820152606401610335565b8382815181106105515761055161098d565b602090810291909101810151600083815260029092526040822080546001600160a01b0319166001600160a01b039092169190911790556004805491610596836109b9565b91905055505b50806105a7816109b9565b915050610402565b600080546001600160a01b038381166001600160a01b0319831681178455604051919092169283917f8be0079c531659141344cd1fd0a4f28419497f9722a3daafe3b4186f6b6457e09190a35050565b60005b828110156101d657600084848381811061061e5761061e61098d565b905060200281019061063091906109d4565b60405161063e92919061097d565b60405180910390209050821561068257600081815260016020526040812080546001600160a01b0319169055600380549161067883610a1b565b91905055506106b2565b600081815260026020526040812080546001600160a01b031916905560048054916106ac83610a1b565b91905055505b50806106bd816109b9565b915050610602565b60008083601f8401126106d757600080fd5b50813567ffffffffffffffff8111156106ef57600080fd5b6020830191508360208260051b850101111561070a57600080fd5b9250929050565b6000806000806040858703121561072757600080fd5b843567ffffffffffffffff8082111561073f57600080fd5b61074b888389016106c5565b9096509450602087013591508082111561076457600080fd5b50610771878288016106c5565b95989497509550505050565b6000806020838503121561079057600080fd5b823567ffffffffffffffff808211156107a857600080fd5b818501915085601f8301126107bc57600080fd5b8135818111156107cb57600080fd5b8660208285010111156107dd57600080fd5b60209290920196919550909350505050565b6000806020838503121561080257600080fd5b823567ffffffffffffffff81111561081957600080fd5b610825858286016106c5565b90969095509350505050565b60006020828403121561084357600080fd5b81356001600160a01b038116811461085a57600080fd5b9392505050565b634e487b7160e01b600052604160045260246000fd5b604051601f8201601f1916810167ffffffffffffffff811182821017156108a0576108a0610861565b604052919050565b600067ffffffffffffffff808411156108c3576108c3610861565b8360051b60206108d4818301610877565b8681529185019181810190368411156108ec57600080fd5b865b84811015610971578035868111156109065760008081fd5b8801601f36818301126109195760008081fd5b81358881111561092b5761092b610861565b61093c818301601f19168801610877565b915080825236878285010111156109535760008081fd5b808784018884013760009082018701528452509183019183016108ee565b50979650505050505050565b8183823760009101908152919050565b634e487b7160e01b600052603260045260246000fd5b634e487b7160e01b600052601160045260246000fd5b60006000198214156109cd576109cd6109a3565b5060010190565b6000808335601e198436030181126109eb57600080fd5b83018035915067ffffffffffffffff821115610a0657600080fd5b60200191503681900382131561070a57600080fd5b600081610a2a57610a2a6109a3565b50600019019056fea264697066735822122076d0d9be674824e29967fe334cbe1e83756b2d77cd9b96dad15ea783c6f3adb564736f6c634300080a0033",
    "linkReferences": {}
  },
  "methodIdentifiers": {
    "addENSRecords(string[],address[])": "2e642506",
    "addRNSRecords(string[],address[])": "3d600714",
    "deleteENSRecords(string[])": "7c7fe9c1",
    "deleteRNSRecords(string[])": "fef103f9",
    "getENSRecord(string)": "599d32cd",
    "getRNSRecord(string)": "354faeb0",
    "getTotalENSCount()": "611a3480",
    "getTotalRNSCount()": "6307b06f",
    "owner()": "8da5cb5b",
    "renounceOwnership()": "715018a6",
    "transferOwnership(address)": "f2fde38b"
  },
  "id": 34
}