{
  "abi": [
    {
      "inputs": [
        {
          "internalType": "address",
          "name": "_owner",
          "type": "address"
        }
      ],
      "stateMutability": "nonpayable",
      "type": "constructor"
    },
    {
      "inputs": [],
      "name": "onlyOwner",
      "outputs": [],
      "stateMutability": "view",
      "type": "function"
    },
    {
      "inputs": [],
      "name": "owner",
      "outputs": [
        {
          "internalType": "address",
          "name": "",
          "type": "address"
        }
      ],
      "stateMutability": "view",
      "type": "function"
    }
  ],
  "bytecode": {
    "object": "0x608060405234801561001057600080fd5b5060405161018138038061018183398101604081905261002f91610054565b600080546001600160a01b0319166001600160a01b0392909216919091179055610084565b60006020828403121561006657600080fd5b81516001600160a01b038116811461007d57600080fd5b9392505050565b60ef806100926000396000f3fe6080604052348015600f57600080fd5b506004361060325760003560e01c80631036e0a81460375780638da5cb5b14603f575b600080fd5b603d606d565b005b6000546051906001600160a01b031681565b6040516001600160a01b03909116815260200160405180910390f35b6000546001600160a01b0316331460b75760405162461bcd60e51b815260206004820152600a6024820152694e6f74206f776e65722160b01b604482015260640160405180910390fd5b56fea2646970667358221220403ac0f6d51338635830124e36d7975bd155ab1ac8052c0d71ef9b5709aaeab764736f6c634300080a0033",
    "linkReferences": {}
  },
  "methodIdentifiers": {
    "onlyOwner()": "1036e0a8",
    "owner()": "8da5cb5b"
  },
  "id": 22
}