{
  "abi": [
    {
      "inputs": [
        {
          "internalType": "address",
          "name": "web3Entry",
          "type": "address"
        }
      ],
      "stateMutability": "nonpayable",
      "type": "constructor"
    },
    {
      "inputs": [],
      "name": "Web3Entry",
      "outputs": [
        {
          "internalType": "address",
          "name": "",
          "type": "address"
        }
      ],
      "stateMutability": "view",
      "type": "function"
    },
    {
      "inputs": [
        {
          "internalType": "uint256",
          "name": "characterId",
          "type": "uint256"
        },
        {
          "internalType": "uint256",
          "name": "noteId",
          "type": "uint256"
        }
      ],
      "name": "getNoteData",
      "outputs": [
        {
          "components": [
            {
              "internalType": "uint256",
              "name": "amount",
              "type": "uint256"
            },
            {
              "internalType": "address",
              "name": "currency",
              "type": "address"
            },
            {
              "internalType": "address",
              "name": "recipient",
              "type": "address"
            }
          ],
          "internalType": "struct CharacterNoteData",
          "name": "",
          "type": "tuple"
        }
      ],
      "stateMutability": "view",
      "type": "function"
    },
    {
      "inputs": [
        {
          "internalType": "uint256",
          "name": "characterId",
          "type": "uint256"
        },
        {
          "internalType": "uint256",
          "name": "noteId",
          "type": "uint256"
        },
        {
          "internalType": "bytes",
          "name": "data",
          "type": "bytes"
        }
      ],
      "name": "initializeMintModule",
      "outputs": [
        {
          "internalType": "bytes",
          "name": "",
          "type": "bytes"
        }
      ],
      "stateMutability": "nonpayable",
      "type": "function"
    },
    {
      "inputs": [
        {
          "internalType": "address",
          "name": "to",
          "type": "address"
        },
        {
          "internalType": "uint256",
          "name": "characterId",
          "type": "uint256"
        },
        {
          "internalType": "uint256",
          "name": "noteId",
          "type": "uint256"
        },
        {
          "internalType": "bytes",
          "name": "data",
          "type": "bytes"
        }
      ],
      "name": "processMint",
      "outputs": [],
      "stateMutability": "nonpayable",
      "type": "function"
    }
  ],
  "bytecode": {
    "object": "0x60a060405234801561001057600080fd5b50604051610a01380380610a0183398101604081905261002f9161008f565b806001600160a01b03811661007d5760405162461bcd60e51b815260206004820152601060248201526f496e76616c696457656233456e74727960801b604482015260640160405180910390fd5b6001600160a01b0316608052506100bf565b6000602082840312156100a157600080fd5b81516001600160a01b03811681146100b857600080fd5b9392505050565b6080516109216100e0600039600081816094015261018001526109216000f3fe608060405234801561001057600080fd5b506004361061004c5760003560e01c80637dd37a9e146100515780637f20dc211461007a578063c5a5ed511461008f578063eb56f509146100ce575b600080fd5b61006461005f3660046106dd565b610173565b6040516100719190610788565b60405180910390f35b61008d6100883660046107b3565b6102e5565b005b6100b67f000000000000000000000000000000000000000000000000000000000000000081565b6040516001600160a01b039091168152602001610071565b6101406100dc36600461081d565b60408051606080820183526000808352602080840182905292840181905294855284825282852093855292815292819020815192830182528054835260018101546001600160a01b0390811694840194909452600201549092169181019190915290565b60408051825181526020808401516001600160a01b03908116918301919091529282015190921690820152606001610071565b6060336001600160a01b037f000000000000000000000000000000000000000000000000000000000000000016146101e15760405162461bcd60e51b815260206004820152600c60248201526b4e6f7457656233456e74727960a01b60448201526064015b60405180910390fd5b600080806101f18587018761083f565b919450925090506001600160a01b038116158015906102105750600083115b61025c5760405162461bcd60e51b815260206004820152601c60248201527f4665654d696e744d6f64756c653a20496e76616c6964506172616d730000000060448201526064016101d8565b6000888152602081815260408083208a84528252918290208581556001810180546001600160a01b038781166001600160a01b03199283161790925560029092018054918616919092161790558151601f88018290048202810182019092528682528790879081908401838280828437600092019190915250929b9a5050505050505050505050565b6000848152602081815260408083208684529091528120805460019091015490916001600160a01b03909116908061031f86860187610881565b9150915083811480156103435750826001600160a01b0316826001600160a01b0316145b6103995760405162461bcd60e51b815260206004820152602160248201527f4665654d696e744d6f64756c653a204d6f64756c65446174614d69736d6174636044820152600d60fb1b60648201526084016101d8565b6000888152602081815260408083208a84529091529020600201546001600160a01b03908116906103ce9085168b83886103da565b50505050505050505050565b604080516001600160a01b0385811660248301528416604482015260648082018490528251808303909101815260849091019091526020810180516001600160e01b03166323b872dd60e01b17905261043490859061043a565b50505050565b600061048f826040518060400160405280602081526020017f5361666545524332303a206c6f772d6c6576656c2063616c6c206661696c6564815250856001600160a01b03166105119092919063ffffffff16565b80519091501561050c57808060200190518101906104ad91906108ad565b61050c5760405162461bcd60e51b815260206004820152602a60248201527f5361666545524332303a204552433230206f7065726174696f6e20646964206e6044820152691bdd081cdd58d8d9595960b21b60648201526084016101d8565b505050565b6060610520848460008561052a565b90505b9392505050565b60608247101561058b5760405162461bcd60e51b815260206004820152602660248201527f416464726573733a20696e73756666696369656e742062616c616e636520666f6044820152651c8818d85b1b60d21b60648201526084016101d8565b6001600160a01b0385163b6105e25760405162461bcd60e51b815260206004820152601d60248201527f416464726573733a2063616c6c20746f206e6f6e2d636f6e747261637400000060448201526064016101d8565b600080866001600160a01b031685876040516105fe91906108cf565b60006040518083038185875af1925050503d806000811461063b576040519150601f19603f3d011682016040523d82523d6000602084013e610640565b606091505b509150915061065082828661065b565b979650505050505050565b6060831561066a575081610523565b82511561067a5782518084602001fd5b8160405162461bcd60e51b81526004016101d89190610788565b60008083601f8401126106a657600080fd5b50813567ffffffffffffffff8111156106be57600080fd5b6020830191508360208285010111156106d657600080fd5b9250929050565b600080600080606085870312156106f357600080fd5b8435935060208501359250604085013567ffffffffffffffff81111561071857600080fd5b61072487828801610694565b95989497509550505050565b60005b8381101561074b578181015183820152602001610733565b838111156104345750506000910152565b60008151808452610774816020860160208601610730565b601f01601f19169290920160200192915050565b602081526000610523602083018461075c565b6001600160a01b03811681146107b057600080fd5b50565b6000806000806000608086880312156107cb57600080fd5b85356107d68161079b565b94506020860135935060408601359250606086013567ffffffffffffffff81111561080057600080fd5b61080c88828901610694565b969995985093965092949392505050565b6000806040838503121561083057600080fd5b50508035926020909101359150565b60008060006060848603121561085457600080fd5b8335925060208401356108668161079b565b915060408401356108768161079b565b809150509250925092565b6000806040838503121561089457600080fd5b823561089f8161079b565b946020939093013593505050565b6000602082840312156108bf57600080fd5b8151801515811461052357600080fd5b600082516108e1818460208701610730565b919091019291505056fea2646970667358221220a8c3c26d047a09f8f431b49ebd702de8b806aa514046edc26bc84040fe2fb6d264736f6c634300080a0033",
    "linkReferences": {}
  },
  "methodIdentifiers": {
    "Web3Entry()": "c5a5ed51",
    "getNoteData(uint256,uint256)": "eb56f509",
    "initializeMintModule(uint256,uint256,bytes)": "7dd37a9e",
    "processMint(address,uint256,uint256,bytes)": "7f20dc21"
  },
  "id": 68
}