{
  "abi": [
    {
      "anonymous": false,
      "inputs": [
        {
          "indexed": true,
          "internalType": "address",
          "name": "owner",
          "type": "address"
        },
        {
          "indexed": true,
          "internalType": "address",
          "name": "approved",
          "type": "address"
        },
        {
          "indexed": true,
          "internalType": "uint256",
          "name": "tokenId",
          "type": "uint256"
        }
      ],
      "name": "Approval",
      "type": "event"
    },
    {
      "anonymous": false,
      "inputs": [
        {
          "indexed": true,
          "internalType": "address",
          "name": "owner",
          "type": "address"
        },
        {
          "indexed": true,
          "internalType": "address",
          "name": "operator",
          "type": "address"
        },
        {
          "indexed": false,
          "internalType": "bool",
          "name": "approved",
          "type": "bool"
        }
      ],
      "name": "ApprovalForAll",
      "type": "event"
    },
    {
      "anonymous": false,
      "inputs": [
        {
          "indexed": false,
          "internalType": "uint8",
          "name": "version",
          "type": "uint8"
        }
      ],
      "name": "Initialized",
      "type": "event"
    },
    {
      "anonymous": false,
      "inputs": [
        {
          "indexed": true,
          "internalType": "address",
          "name": "from",
          "type": "address"
        },
        {
          "indexed": true,
          "internalType": "address",
          "name": "to",
          "type": "address"
        },
        {
          "indexed": true,
          "internalType": "uint256",
          "name": "tokenId",
          "type": "uint256"
        }
      ],
      "name": "Transfer",
      "type": "event"
    },
    {
      "inputs": [
        {
          "internalType": "address",
          "name": "to",
          "type": "address"
        },
        {
          "internalType": "uint256",
          "name": "tokenId",
          "type": "uint256"
        }
      ],
      "name": "approve",
      "outputs": [],
      "stateMutability": "nonpayable",
      "type": "function"
    },
    {
      "inputs": [
        {
          "internalType": "address",
          "name": "owner",
          "type": "address"
        }
      ],
      "name": "balanceOf",
      "outputs": [
        {
          "internalType": "uint256",
          "name": "",
          "type": "uint256"
        }
      ],
      "stateMutability": "view",
      "type": "function"
    },
    {
      "inputs": [
        {
          "internalType": "uint256",
          "name": "tokenId",
          "type": "uint256"
        }
      ],
      "name": "burn",
      "outputs": [],
      "stateMutability": "nonpayable",
      "type": "function"
    },
    {
      "inputs": [
        {
          "internalType": "string",
          "name": "handle",
          "type": "string"
        },
        {
          "internalType": "address",
          "name": "account",
          "type": "address"
        }
      ],
      "name": "canCreate",
      "outputs": [
        {
          "internalType": "bool",
          "name": "",
          "type": "bool"
        }
      ],
      "stateMutability": "view",
      "type": "function"
    },
    {
      "inputs": [
        {
          "components": [
            {
              "internalType": "address",
              "name": "to",
              "type": "address"
            },
            {
              "internalType": "string",
              "name": "handle",
              "type": "string"
            },
            {
              "internalType": "string",
              "name": "uri",
              "type": "string"
            },
            {
              "internalType": "address",
              "name": "linkModule",
              "type": "address"
            },
            {
              "internalType": "bytes",
              "name": "linkModuleInitData",
              "type": "bytes"
            }
          ],
          "internalType": "struct DataTypes.CreateCharacterData",
          "name": "vars",
          "type": "tuple"
        }
      ],
      "name": "createCharacter",
      "outputs": [],
      "stateMutability": "nonpayable",
      "type": "function"
    },
    {
      "inputs": [
        {
          "components": [
            {
              "internalType": "uint256",
              "name": "fromCharacterId",
              "type": "uint256"
            },
            {
              "internalType": "address",
              "name": "to",
              "type": "address"
            },
            {
              "internalType": "bytes32",
              "name": "linkType",
              "type": "bytes32"
            }
          ],
          "internalType": "struct DataTypes.createThenLinkCharacterData",
          "name": "vars",
          "type": "tuple"
        }
      ],
      "name": "createThenLinkCharacter",
      "outputs": [],
      "stateMutability": "nonpayable",
      "type": "function"
    },
    {
      "inputs": [
        {
          "internalType": "uint256",
          "name": "characterId",
          "type": "uint256"
        },
        {
          "internalType": "uint256",
          "name": "noteId",
          "type": "uint256"
        }
      ],
      "name": "deleteNote",
      "outputs": [],
      "stateMutability": "nonpayable",
      "type": "function"
    },
    {
      "inputs": [
        {
          "internalType": "uint256",
          "name": "tokenId",
          "type": "uint256"
        }
      ],
      "name": "getApproved",
      "outputs": [
        {
          "internalType": "address",
          "name": "",
          "type": "address"
        }
      ],
      "stateMutability": "view",
      "type": "function"
    },
    {
      "inputs": [
        {
          "internalType": "uint256",
          "name": "characterId",
          "type": "uint256"
        }
      ],
      "name": "getCharacter",
      "outputs": [
        {
          "components": [
            {
              "internalType": "uint256",
              "name": "characterId",
              "type": "uint256"
            },
            {
              "internalType": "string",
              "name": "handle",
              "type": "string"
            },
            {
              "internalType": "string",
              "name": "uri",
              "type": "string"
            },
            {
              "internalType": "uint256",
              "name": "noteCount",
              "type": "uint256"
            },
            {
              "internalType": "address",
              "name": "socialToken",
              "type": "address"
            },
            {
              "internalType": "address",
              "name": "linkModule",
              "type": "address"
            }
          ],
          "internalType": "struct DataTypes.Character",
          "name": "",
          "type": "tuple"
        }
      ],
      "stateMutability": "view",
      "type": "function"
    },
    {
      "inputs": [
        {
          "internalType": "string",
          "name": "handle",
          "type": "string"
        }
      ],
      "name": "getCharacterByHandle",
      "outputs": [
        {
          "components": [
            {
              "internalType": "uint256",
              "name": "characterId",
              "type": "uint256"
            },
            {
              "internalType": "string",
              "name": "handle",
              "type": "string"
            },
            {
              "internalType": "string",
              "name": "uri",
              "type": "string"
            },
            {
              "internalType": "uint256",
              "name": "noteCount",
              "type": "uint256"
            },
            {
              "internalType": "address",
              "name": "socialToken",
              "type": "address"
            },
            {
              "internalType": "address",
              "name": "linkModule",
              "type": "address"
            }
          ],
          "internalType": "struct DataTypes.Character",
          "name": "",
          "type": "tuple"
        }
      ],
      "stateMutability": "view",
      "type": "function"
    },
    {
      "inputs": [
        {
          "internalType": "uint256",
          "name": "characterId",
          "type": "uint256"
        }
      ],
      "name": "getCharacterUri",
      "outputs": [
        {
          "internalType": "string",
          "name": "",
          "type": "string"
        }
      ],
      "stateMutability": "view",
      "type": "function"
    },
    {
      "inputs": [
        {
          "internalType": "uint256",
          "name": "characterId",
          "type": "uint256"
        }
      ],
      "name": "getHandle",
      "outputs": [
        {
          "internalType": "string",
          "name": "",
          "type": "string"
        }
      ],
      "stateMutability": "view",
      "type": "function"
    },
    {
      "inputs": [
        {
          "internalType": "address",
          "name": "account",
          "type": "address"
        }
      ],
      "name": "getLinkModule4Address",
      "outputs": [
        {
          "internalType": "address",
          "name": "",
          "type": "address"
        }
      ],
      "stateMutability": "view",
      "type": "function"
    },
    {
      "inputs": [
        {
          "internalType": "address",
          "name": "tokenAddress",
          "type": "address"
        },
        {
          "internalType": "uint256",
          "name": "tokenId",
          "type": "uint256"
        }
      ],
      "name": "getLinkModule4ERC721",
      "outputs": [
        {
          "internalType": "address",
          "name": "",
          "type": "address"
        }
      ],
      "stateMutability": "view",
      "type": "function"
    },
    {
      "inputs": [
        {
          "internalType": "uint256",
          "name": "tokenId",
          "type": "uint256"
        }
      ],
      "name": "getLinkModule4Linklist",
      "outputs": [
        {
          "internalType": "address",
          "name": "",
          "type": "address"
        }
      ],
      "stateMutability": "view",
      "type": "function"
    },
    {
      "inputs": [],
      "name": "getLinklistContract",
      "outputs": [
        {
          "internalType": "address",
          "name": "",
          "type": "address"
        }
      ],
      "stateMutability": "view",
      "type": "function"
    },
    {
      "inputs": [
        {
          "internalType": "uint256",
          "name": "characterId",
          "type": "uint256"
        },
        {
          "internalType": "bytes32",
          "name": "linkType",
          "type": "bytes32"
        }
      ],
      "name": "getLinklistId",
      "outputs": [
        {
          "internalType": "uint256",
          "name": "",
          "type": "uint256"
        }
      ],
      "stateMutability": "view",
      "type": "function"
    },
    {
      "inputs": [
        {
          "internalType": "uint256",
          "name": "linkListId",
          "type": "uint256"
        }
      ],
      "name": "getLinklistType",
      "outputs": [
        {
          "internalType": "bytes32",
          "name": "",
          "type": "bytes32"
        }
      ],
      "stateMutability": "view",
      "type": "function"
    },
    {
      "inputs": [
        {
          "internalType": "uint256",
          "name": "tokenId",
          "type": "uint256"
        }
      ],
      "name": "getLinklistUri",
      "outputs": [
        {
          "internalType": "string",
          "name": "",
          "type": "string"
        }
      ],
      "stateMutability": "view",
      "type": "function"
    },
    {
      "inputs": [
        {
          "internalType": "uint256",
          "name": "characterId",
          "type": "uint256"
        },
        {
          "internalType": "uint256",
          "name": "noteId",
          "type": "uint256"
        }
      ],
      "name": "getNote",
      "outputs": [
        {
          "components": [
            {
              "internalType": "bytes32",
              "name": "linkItemType",
              "type": "bytes32"
            },
            {
              "internalType": "bytes32",
              "name": "linkKey",
              "type": "bytes32"
            },
            {
              "internalType": "string",
              "name": "contentUri",
              "type": "string"
            },
            {
              "internalType": "address",
              "name": "linkModule",
              "type": "address"
            },
            {
              "internalType": "address",
              "name": "mintModule",
              "type": "address"
            },
            {
              "internalType": "address",
              "name": "mintNFT",
              "type": "address"
            },
            {
              "internalType": "bool",
              "name": "deleted",
              "type": "bool"
            },
            {
              "internalType": "bool",
              "name": "locked",
              "type": "bool"
            }
          ],
          "internalType": "struct DataTypes.Note",
          "name": "",
          "type": "tuple"
        }
      ],
      "stateMutability": "view",
      "type": "function"
    },
    {
      "inputs": [
        {
          "internalType": "uint256",
          "name": "characterId",
          "type": "uint256"
        }
      ],
      "name": "getOperator",
      "outputs": [
        {
          "internalType": "address",
          "name": "",
          "type": "address"
        }
      ],
      "stateMutability": "view",
      "type": "function"
    },
    {
      "inputs": [
        {
          "internalType": "address",
          "name": "account",
          "type": "address"
        }
      ],
      "name": "getPrimaryCharacterId",
      "outputs": [
        {
          "internalType": "uint256",
          "name": "",
          "type": "uint256"
        }
      ],
      "stateMutability": "view",
      "type": "function"
    },
    {
      "inputs": [],
      "name": "getRevision",
      "outputs": [
        {
          "internalType": "uint256",
          "name": "",
          "type": "uint256"
        }
      ],
      "stateMutability": "pure",
      "type": "function"
    },
    {
      "inputs": [
        {
          "internalType": "string",
          "name": "_name",
          "type": "string"
        },
        {
          "internalType": "string",
          "name": "_symbol",
          "type": "string"
        },
        {
          "internalType": "address",
          "name": "_linklistContract",
          "type": "address"
        },
        {
          "internalType": "address",
          "name": "_mintNFTImpl",
          "type": "address"
        },
        {
          "internalType": "address",
          "name": "_periphery",
          "type": "address"
        },
        {
          "internalType": "address",
          "name": "_resolver",
          "type": "address"
        }
      ],
      "name": "initialize",
      "outputs": [],
      "stateMutability": "nonpayable",
      "type": "function"
    },
    {
      "inputs": [
        {
          "internalType": "address",
          "name": "owner",
          "type": "address"
        },
        {
          "internalType": "address",
          "name": "operator",
          "type": "address"
        }
      ],
      "name": "isApprovedForAll",
      "outputs": [
        {
          "internalType": "bool",
          "name": "",
          "type": "bool"
        }
      ],
      "stateMutability": "view",
      "type": "function"
    },
    {
      "inputs": [
        {
          "internalType": "uint256",
          "name": "characterId",
          "type": "uint256"
        }
      ],
      "name": "isPrimaryCharacter",
      "outputs": [
        {
          "internalType": "bool",
          "name": "",
          "type": "bool"
        }
      ],
      "stateMutability": "view",
      "type": "function"
    },
    {
      "inputs": [
        {
          "components": [
            {
              "internalType": "uint256",
              "name": "fromCharacterId",
              "type": "uint256"
            },
            {
              "internalType": "address",
              "name": "ethAddress",
              "type": "address"
            },
            {
              "internalType": "bytes32",
              "name": "linkType",
              "type": "bytes32"
            },
            {
              "internalType": "bytes",
              "name": "data",
              "type": "bytes"
            }
          ],
          "internalType": "struct DataTypes.linkAddressData",
          "name": "vars",
          "type": "tuple"
        }
      ],
      "name": "linkAddress",
      "outputs": [],
      "stateMutability": "nonpayable",
      "type": "function"
    },
    {
      "inputs": [
        {
          "components": [
            {
              "internalType": "uint256",
              "name": "fromCharacterId",
              "type": "uint256"
            },
            {
              "internalType": "string",
              "name": "toUri",
              "type": "string"
            },
            {
              "internalType": "bytes32",
              "name": "linkType",
              "type": "bytes32"
            },
            {
              "internalType": "bytes",
              "name": "data",
              "type": "bytes"
            }
          ],
          "internalType": "struct DataTypes.linkAnyUriData",
          "name": "vars",
          "type": "tuple"
        }
      ],
      "name": "linkAnyUri",
      "outputs": [],
      "stateMutability": "nonpayable",
      "type": "function"
    },
    {
      "inputs": [
        {
          "components": [
            {
              "internalType": "uint256",
              "name": "fromCharacterId",
              "type": "uint256"
            },
            {
              "internalType": "uint256",
              "name": "toCharacterId",
              "type": "uint256"
            },
            {
              "internalType": "bytes32",
              "name": "linkType",
              "type": "bytes32"
            },
            {
              "internalType": "bytes",
              "name": "data",
              "type": "bytes"
            }
          ],
          "internalType": "struct DataTypes.linkCharacterData",
          "name": "vars",
          "type": "tuple"
        }
      ],
      "name": "linkCharacter",
      "outputs": [],
      "stateMutability": "nonpayable",
      "type": "function"
    },
    {
      "inputs": [
        {
          "internalType": "uint256",
          "name": "fromCharacterId",
          "type": "uint256"
        },
        {
          "components": [
            {
              "internalType": "uint256",
              "name": "fromCharacterId",
              "type": "uint256"
            },
            {
              "internalType": "uint256",
              "name": "toCharacterId",
              "type": "uint256"
            },
            {
              "internalType": "bytes32",
              "name": "linkType",
              "type": "bytes32"
            }
          ],
          "internalType": "struct DataTypes.CharacterLinkStruct",
          "name": "linkData",
          "type": "tuple"
        },
        {
          "internalType": "bytes32",
          "name": "linkType",
          "type": "bytes32"
        }
      ],
      "name": "linkCharacterLink",
      "outputs": [],
      "stateMutability": "nonpayable",
      "type": "function"
    },
    {
      "inputs": [
        {
          "components": [
            {
              "internalType": "uint256",
              "name": "fromCharacterId",
              "type": "uint256"
            },
            {
              "internalType": "address",
              "name": "tokenAddress",
              "type": "address"
            },
            {
              "internalType": "uint256",
              "name": "tokenId",
              "type": "uint256"
            },
            {
              "internalType": "bytes32",
              "name": "linkType",
              "type": "bytes32"
            },
            {
              "internalType": "bytes",
              "name": "data",
              "type": "bytes"
            }
          ],
          "internalType": "struct DataTypes.linkERC721Data",
          "name": "vars",
          "type": "tuple"
        }
      ],
      "name": "linkERC721",
      "outputs": [],
      "stateMutability": "nonpayable",
      "type": "function"
    },
    {
      "inputs": [
        {
          "components": [
            {
              "internalType": "uint256",
              "name": "fromCharacterId",
              "type": "uint256"
            },
            {
              "internalType": "uint256",
              "name": "toLinkListId",
              "type": "uint256"
            },
            {
              "internalType": "bytes32",
              "name": "linkType",
              "type": "bytes32"
            },
            {
              "internalType": "bytes",
              "name": "data",
              "type": "bytes"
            }
          ],
          "internalType": "struct DataTypes.linkLinklistData",
          "name": "vars",
          "type": "tuple"
        }
      ],
      "name": "linkLinklist",
      "outputs": [],
      "stateMutability": "nonpayable",
      "type": "function"
    },
    {
      "inputs": [
        {
          "components": [
            {
              "internalType": "uint256",
              "name": "fromCharacterId",
              "type": "uint256"
            },
            {
              "internalType": "uint256",
              "name": "toCharacterId",
              "type": "uint256"
            },
            {
              "internalType": "uint256",
              "name": "toNoteId",
              "type": "uint256"
            },
            {
              "internalType": "bytes32",
              "name": "linkType",
              "type": "bytes32"
            },
            {
              "internalType": "bytes",
              "name": "data",
              "type": "bytes"
            }
          ],
          "internalType": "struct DataTypes.linkNoteData",
          "name": "vars",
          "type": "tuple"
        }
      ],
      "name": "linkNote",
      "outputs": [],
      "stateMutability": "nonpayable",
      "type": "function"
    },
    {
      "inputs": [
        {
          "internalType": "uint256",
          "name": "characterId",
          "type": "uint256"
        },
        {
          "internalType": "uint256",
          "name": "noteId",
          "type": "uint256"
        }
      ],
      "name": "lockNote",
      "outputs": [],
      "stateMutability": "nonpayable",
      "type": "function"
    },
    {
      "inputs": [
        {
          "components": [
            {
              "internalType": "uint256",
              "name": "characterId",
              "type": "uint256"
            },
            {
              "internalType": "uint256",
              "name": "noteId",
              "type": "uint256"
            },
            {
              "internalType": "address",
              "name": "to",
              "type": "address"
            },
            {
              "internalType": "bytes",
              "name": "mintModuleData",
              "type": "bytes"
            }
          ],
          "internalType": "struct DataTypes.MintNoteData",
          "name": "vars",
          "type": "tuple"
        }
      ],
      "name": "mintNote",
      "outputs": [
        {
          "internalType": "uint256",
          "name": "",
          "type": "uint256"
        }
      ],
      "stateMutability": "nonpayable",
      "type": "function"
    },
    {
      "inputs": [],
      "name": "name",
      "outputs": [
        {
          "internalType": "string",
          "name": "",
          "type": "string"
        }
      ],
      "stateMutability": "view",
      "type": "function"
    },
    {
      "inputs": [
        {
          "internalType": "uint256",
          "name": "tokenId",
          "type": "uint256"
        }
      ],
      "name": "ownerOf",
      "outputs": [
        {
          "internalType": "address",
          "name": "",
          "type": "address"
        }
      ],
      "stateMutability": "view",
      "type": "function"
    },
    {
      "inputs": [
        {
          "components": [
            {
              "internalType": "uint256",
              "name": "characterId",
              "type": "uint256"
            },
            {
              "internalType": "string",
              "name": "contentUri",
              "type": "string"
            },
            {
              "internalType": "address",
              "name": "linkModule",
              "type": "address"
            },
            {
              "internalType": "bytes",
              "name": "linkModuleInitData",
              "type": "bytes"
            },
            {
              "internalType": "address",
              "name": "mintModule",
              "type": "address"
            },
            {
              "internalType": "bytes",
              "name": "mintModuleInitData",
              "type": "bytes"
            },
            {
              "internalType": "bool",
              "name": "locked",
              "type": "bool"
            }
          ],
          "internalType": "struct DataTypes.PostNoteData",
          "name": "vars",
          "type": "tuple"
        }
      ],
      "name": "postNote",
      "outputs": [
        {
          "internalType": "uint256",
          "name": "",
          "type": "uint256"
        }
      ],
      "stateMutability": "nonpayable",
      "type": "function"
    },
    {
      "inputs": [
        {
          "components": [
            {
              "internalType": "uint256",
              "name": "characterId",
              "type": "uint256"
            },
            {
              "internalType": "string",
              "name": "contentUri",
              "type": "string"
            },
            {
              "internalType": "address",
              "name": "linkModule",
              "type": "address"
            },
            {
              "internalType": "bytes",
              "name": "linkModuleInitData",
              "type": "bytes"
            },
            {
              "internalType": "address",
              "name": "mintModule",
              "type": "address"
            },
            {
              "internalType": "bytes",
              "name": "mintModuleInitData",
              "type": "bytes"
            },
            {
              "internalType": "bool",
              "name": "locked",
              "type": "bool"
            }
          ],
          "internalType": "struct DataTypes.PostNoteData",
          "name": "noteData",
          "type": "tuple"
        },
        {
          "internalType": "address",
          "name": "ethAddress",
          "type": "address"
        }
      ],
      "name": "postNote4Address",
      "outputs": [
        {
          "internalType": "uint256",
          "name": "",
          "type": "uint256"
        }
      ],
      "stateMutability": "nonpayable",
      "type": "function"
    },
    {
      "inputs": [
        {
          "components": [
            {
              "internalType": "uint256",
              "name": "characterId",
              "type": "uint256"
            },
            {
              "internalType": "string",
              "name": "contentUri",
              "type": "string"
            },
            {
              "internalType": "address",
              "name": "linkModule",
              "type": "address"
            },
            {
              "internalType": "bytes",
              "name": "linkModuleInitData",
              "type": "bytes"
            },
            {
              "internalType": "address",
              "name": "mintModule",
              "type": "address"
            },
            {
              "internalType": "bytes",
              "name": "mintModuleInitData",
              "type": "bytes"
            },
            {
              "internalType": "bool",
              "name": "locked",
              "type": "bool"
            }
          ],
          "internalType": "struct DataTypes.PostNoteData",
          "name": "postNoteData",
          "type": "tuple"
        },
        {
          "internalType": "string",
          "name": "uri",
          "type": "string"
        }
      ],
      "name": "postNote4AnyUri",
      "outputs": [
        {
          "internalType": "uint256",
          "name": "",
          "type": "uint256"
        }
      ],
      "stateMutability": "nonpayable",
      "type": "function"
    },
    {
      "inputs": [
        {
          "components": [
            {
              "internalType": "uint256",
              "name": "characterId",
              "type": "uint256"
            },
            {
              "internalType": "string",
              "name": "contentUri",
              "type": "string"
            },
            {
              "internalType": "address",
              "name": "linkModule",
              "type": "address"
            },
            {
              "internalType": "bytes",
              "name": "linkModuleInitData",
              "type": "bytes"
            },
            {
              "internalType": "address",
              "name": "mintModule",
              "type": "address"
            },
            {
              "internalType": "bytes",
              "name": "mintModuleInitData",
              "type": "bytes"
            },
            {
              "internalType": "bool",
              "name": "locked",
              "type": "bool"
            }
          ],
          "internalType": "struct DataTypes.PostNoteData",
          "name": "postNoteData",
          "type": "tuple"
        },
        {
          "internalType": "uint256",
          "name": "toCharacterId",
          "type": "uint256"
        }
      ],
      "name": "postNote4Character",
      "outputs": [
        {
          "internalType": "uint256",
          "name": "",
          "type": "uint256"
        }
      ],
      "stateMutability": "nonpayable",
      "type": "function"
    },
    {
      "inputs": [
        {
          "components": [
            {
              "internalType": "uint256",
              "name": "characterId",
              "type": "uint256"
            },
            {
              "internalType": "string",
              "name": "contentUri",
              "type": "string"
            },
            {
              "internalType": "address",
              "name": "linkModule",
              "type": "address"
            },
            {
              "internalType": "bytes",
              "name": "linkModuleInitData",
              "type": "bytes"
            },
            {
              "internalType": "address",
              "name": "mintModule",
              "type": "address"
            },
            {
              "internalType": "bytes",
              "name": "mintModuleInitData",
              "type": "bytes"
            },
            {
              "internalType": "bool",
              "name": "locked",
              "type": "bool"
            }
          ],
          "internalType": "struct DataTypes.PostNoteData",
          "name": "postNoteData",
          "type": "tuple"
        },
        {
          "components": [
            {
              "internalType": "address",
              "name": "tokenAddress",
              "type": "address"
            },
            {
              "internalType": "uint256",
              "name": "erc721TokenId",
              "type": "uint256"
            }
          ],
          "internalType": "struct DataTypes.ERC721Struct",
          "name": "erc721",
          "type": "tuple"
        }
      ],
      "name": "postNote4ERC721",
      "outputs": [
        {
          "internalType": "uint256",
          "name": "",
          "type": "uint256"
        }
      ],
      "stateMutability": "nonpayable",
      "type": "function"
    },
    {
      "inputs": [
        {
          "components": [
            {
              "internalType": "uint256",
              "name": "characterId",
              "type": "uint256"
            },
            {
              "internalType": "string",
              "name": "contentUri",
              "type": "string"
            },
            {
              "internalType": "address",
              "name": "linkModule",
              "type": "address"
            },
            {
              "internalType": "bytes",
              "name": "linkModuleInitData",
              "type": "bytes"
            },
            {
              "internalType": "address",
              "name": "mintModule",
              "type": "address"
            },
            {
              "internalType": "bytes",
              "name": "mintModuleInitData",
              "type": "bytes"
            },
            {
              "internalType": "bool",
              "name": "locked",
              "type": "bool"
            }
          ],
          "internalType": "struct DataTypes.PostNoteData",
          "name": "noteData",
          "type": "tuple"
        },
        {
          "internalType": "uint256",
          "name": "toLinklistId",
          "type": "uint256"
        }
      ],
      "name": "postNote4Linklist",
      "outputs": [
        {
          "internalType": "uint256",
          "name": "",
          "type": "uint256"
        }
      ],
      "stateMutability": "nonpayable",
      "type": "function"
    },
    {
      "inputs": [
        {
          "components": [
            {
              "internalType": "uint256",
              "name": "characterId",
              "type": "uint256"
            },
            {
              "internalType": "string",
              "name": "contentUri",
              "type": "string"
            },
            {
              "internalType": "address",
              "name": "linkModule",
              "type": "address"
            },
            {
              "internalType": "bytes",
              "name": "linkModuleInitData",
              "type": "bytes"
            },
            {
              "internalType": "address",
              "name": "mintModule",
              "type": "address"
            },
            {
              "internalType": "bytes",
              "name": "mintModuleInitData",
              "type": "bytes"
            },
            {
              "internalType": "bool",
              "name": "locked",
              "type": "bool"
            }
          ],
          "internalType": "struct DataTypes.PostNoteData",
          "name": "postNoteData",
          "type": "tuple"
        },
        {
          "components": [
            {
              "internalType": "uint256",
              "name": "characterId",
              "type": "uint256"
            },
            {
              "internalType": "uint256",
              "name": "noteId",
              "type": "uint256"
            }
          ],
          "internalType": "struct DataTypes.NoteStruct",
          "name": "note",
          "type": "tuple"
        }
      ],
      "name": "postNote4Note",
      "outputs": [
        {
          "internalType": "uint256",
          "name": "",
          "type": "uint256"
        }
      ],
      "stateMutability": "nonpayable",
      "type": "function"
    },
    {
      "inputs": [],
      "name": "resolver",
      "outputs": [
        {
          "internalType": "address",
          "name": "",
          "type": "address"
        }
      ],
      "stateMutability": "view",
      "type": "function"
    },
    {
      "inputs": [
        {
          "internalType": "address",
          "name": "from",
          "type": "address"
        },
        {
          "internalType": "address",
          "name": "to",
          "type": "address"
        },
        {
          "internalType": "uint256",
          "name": "tokenId",
          "type": "uint256"
        }
      ],
      "name": "safeTransferFrom",
      "outputs": [],
      "stateMutability": "nonpayable",
      "type": "function"
    },
    {
      "inputs": [
        {
          "internalType": "address",
          "name": "from",
          "type": "address"
        },
        {
          "internalType": "address",
          "name": "to",
          "type": "address"
        },
        {
          "internalType": "uint256",
          "name": "tokenId",
          "type": "uint256"
        },
        {
          "internalType": "bytes",
          "name": "_data",
          "type": "bytes"
        }
      ],
      "name": "safeTransferFrom",
      "outputs": [],
      "stateMutability": "nonpayable",
      "type": "function"
    },
    {
      "inputs": [
        {
          "internalType": "address",
          "name": "operator",
          "type": "address"
        },
        {
          "internalType": "bool",
          "name": "approved",
          "type": "bool"
        }
      ],
      "name": "setApprovalForAll",
      "outputs": [],
      "stateMutability": "nonpayable",
      "type": "function"
    },
    {
      "inputs": [
        {
          "internalType": "uint256",
          "name": "characterId",
          "type": "uint256"
        },
        {
          "internalType": "string",
          "name": "newUri",
          "type": "string"
        }
      ],
      "name": "setCharacterUri",
      "outputs": [],
      "stateMutability": "nonpayable",
      "type": "function"
    },
    {
      "inputs": [
        {
          "internalType": "uint256",
          "name": "characterId",
          "type": "uint256"
        },
        {
          "internalType": "string",
          "name": "newHandle",
          "type": "string"
        }
      ],
      "name": "setHandle",
      "outputs": [],
      "stateMutability": "nonpayable",
      "type": "function"
    },
    {
      "inputs": [
        {
          "components": [
            {
              "internalType": "address",
              "name": "account",
              "type": "address"
            },
            {
              "internalType": "address",
              "name": "linkModule",
              "type": "address"
            },
            {
              "internalType": "bytes",
              "name": "linkModuleInitData",
              "type": "bytes"
            }
          ],
          "internalType": "struct DataTypes.setLinkModule4AddressData",
          "name": "vars",
          "type": "tuple"
        }
      ],
      "name": "setLinkModule4Address",
      "outputs": [],
      "stateMutability": "nonpayable",
      "type": "function"
    },
    {
      "inputs": [
        {
          "components": [
            {
              "internalType": "uint256",
              "name": "characterId",
              "type": "uint256"
            },
            {
              "internalType": "address",
              "name": "linkModule",
              "type": "address"
            },
            {
              "internalType": "bytes",
              "name": "linkModuleInitData",
              "type": "bytes"
            }
          ],
          "internalType": "struct DataTypes.setLinkModule4CharacterData",
          "name": "vars",
          "type": "tuple"
        }
      ],
      "name": "setLinkModule4Character",
      "outputs": [],
      "stateMutability": "nonpayable",
      "type": "function"
    },
    {
      "inputs": [
        {
          "components": [
            {
              "internalType": "address",
              "name": "tokenAddress",
              "type": "address"
            },
            {
              "internalType": "uint256",
              "name": "tokenId",
              "type": "uint256"
            },
            {
              "internalType": "address",
              "name": "linkModule",
              "type": "address"
            },
            {
              "internalType": "bytes",
              "name": "linkModuleInitData",
              "type": "bytes"
            }
          ],
          "internalType": "struct DataTypes.setLinkModule4ERC721Data",
          "name": "vars",
          "type": "tuple"
        }
      ],
      "name": "setLinkModule4ERC721",
      "outputs": [],
      "stateMutability": "nonpayable",
      "type": "function"
    },
    {
      "inputs": [
        {
          "components": [
            {
              "internalType": "uint256",
              "name": "linklistId",
              "type": "uint256"
            },
            {
              "internalType": "address",
              "name": "linkModule",
              "type": "address"
            },
            {
              "internalType": "bytes",
              "name": "linkModuleInitData",
              "type": "bytes"
            }
          ],
          "internalType": "struct DataTypes.setLinkModule4LinklistData",
          "name": "vars",
          "type": "tuple"
        }
      ],
      "name": "setLinkModule4Linklist",
      "outputs": [],
      "stateMutability": "nonpayable",
      "type": "function"
    },
    {
      "inputs": [
        {
          "components": [
            {
              "internalType": "uint256",
              "name": "characterId",
              "type": "uint256"
            },
            {
              "internalType": "uint256",
              "name": "noteId",
              "type": "uint256"
            },
            {
              "internalType": "address",
              "name": "linkModule",
              "type": "address"
            },
            {
              "internalType": "bytes",
              "name": "linkModuleInitData",
              "type": "bytes"
            }
          ],
          "internalType": "struct DataTypes.setLinkModule4NoteData",
          "name": "vars",
          "type": "tuple"
        }
      ],
      "name": "setLinkModule4Note",
      "outputs": [],
      "stateMutability": "nonpayable",
      "type": "function"
    },
    {
      "inputs": [
        {
          "internalType": "uint256",
          "name": "linklistId",
          "type": "uint256"
        },
        {
          "internalType": "string",
          "name": "uri",
          "type": "string"
        }
      ],
      "name": "setLinklistUri",
      "outputs": [],
      "stateMutability": "nonpayable",
      "type": "function"
    },
    {
      "inputs": [
        {
          "components": [
            {
              "internalType": "uint256",
              "name": "characterId",
              "type": "uint256"
            },
            {
              "internalType": "uint256",
              "name": "noteId",
              "type": "uint256"
            },
            {
              "internalType": "address",
              "name": "mintModule",
              "type": "address"
            },
            {
              "internalType": "bytes",
              "name": "mintModuleInitData",
              "type": "bytes"
            }
          ],
          "internalType": "struct DataTypes.setMintModule4NoteData",
          "name": "vars",
          "type": "tuple"
        }
      ],
      "name": "setMintModule4Note",
      "outputs": [],
      "stateMutability": "nonpayable",
      "type": "function"
    },
    {
      "inputs": [
        {
          "internalType": "uint256",
          "name": "characterId",
          "type": "uint256"
        },
        {
          "internalType": "uint256",
          "name": "noteId",
          "type": "uint256"
        },
        {
          "internalType": "string",
          "name": "newUri",
          "type": "string"
        }
      ],
      "name": "setNoteUri",
      "outputs": [],
      "stateMutability": "nonpayable",
      "type": "function"
    },
    {
      "inputs": [
        {
          "internalType": "uint256",
          "name": "characterId",
          "type": "uint256"
        },
        {
          "internalType": "address",
          "name": "operator",
          "type": "address"
        }
      ],
      "name": "setOperator",
      "outputs": [],
      "stateMutability": "nonpayable",
      "type": "function"
    },
    {
      "inputs": [
        {
          "internalType": "uint256",
          "name": "characterId",
          "type": "uint256"
        }
      ],
      "name": "setPrimaryCharacterId",
      "outputs": [],
      "stateMutability": "nonpayable",
      "type": "function"
    },
    {
      "inputs": [
        {
          "internalType": "uint256",
          "name": "characterId",
          "type": "uint256"
        },
        {
          "internalType": "address",
          "name": "tokenAddress",
          "type": "address"
        }
      ],
      "name": "setSocialToken",
      "outputs": [],
      "stateMutability": "nonpayable",
      "type": "function"
    },
    {
      "inputs": [
        {
          "internalType": "bytes4",
          "name": "interfaceId",
          "type": "bytes4"
        }
      ],
      "name": "supportsInterface",
      "outputs": [
        {
          "internalType": "bool",
          "name": "",
          "type": "bool"
        }
      ],
      "stateMutability": "view",
      "type": "function"
    },
    {
      "inputs": [],
      "name": "symbol",
      "outputs": [
        {
          "internalType": "string",
          "name": "",
          "type": "string"
        }
      ],
      "stateMutability": "view",
      "type": "function"
    },
    {
      "inputs": [
        {
          "internalType": "uint256",
          "name": "index",
          "type": "uint256"
        }
      ],
      "name": "tokenByIndex",
      "outputs": [
        {
          "internalType": "uint256",
          "name": "",
          "type": "uint256"
        }
      ],
      "stateMutability": "view",
      "type": "function"
    },
    {
      "inputs": [
        {
          "internalType": "address",
          "name": "owner",
          "type": "address"
        },
        {
          "internalType": "uint256",
          "name": "index",
          "type": "uint256"
        }
      ],
      "name": "tokenOfOwnerByIndex",
      "outputs": [
        {
          "internalType": "uint256",
          "name": "",
          "type": "uint256"
        }
      ],
      "stateMutability": "view",
      "type": "function"
    },
    {
      "inputs": [
        {
          "internalType": "uint256",
          "name": "characterId",
          "type": "uint256"
        }
      ],
      "name": "tokenURI",
      "outputs": [
        {
          "internalType": "string",
          "name": "",
          "type": "string"
        }
      ],
      "stateMutability": "view",
      "type": "function"
    },
    {
      "inputs": [],
      "name": "totalSupply",
      "outputs": [
        {
          "internalType": "uint256",
          "name": "",
          "type": "uint256"
        }
      ],
      "stateMutability": "view",
      "type": "function"
    },
    {
      "inputs": [
        {
          "internalType": "address",
          "name": "from",
          "type": "address"
        },
        {
          "internalType": "address",
          "name": "to",
          "type": "address"
        },
        {
          "internalType": "uint256",
          "name": "tokenId",
          "type": "uint256"
        }
      ],
      "name": "transferFrom",
      "outputs": [],
      "stateMutability": "nonpayable",
      "type": "function"
    },
    {
      "inputs": [
        {
          "components": [
            {
              "internalType": "uint256",
              "name": "fromCharacterId",
              "type": "uint256"
            },
            {
              "internalType": "address",
              "name": "ethAddress",
              "type": "address"
            },
            {
              "internalType": "bytes32",
              "name": "linkType",
              "type": "bytes32"
            }
          ],
          "internalType": "struct DataTypes.unlinkAddressData",
          "name": "vars",
          "type": "tuple"
        }
      ],
      "name": "unlinkAddress",
      "outputs": [],
      "stateMutability": "nonpayable",
      "type": "function"
    },
    {
      "inputs": [
        {
          "components": [
            {
              "internalType": "uint256",
              "name": "fromCharacterId",
              "type": "uint256"
            },
            {
              "internalType": "string",
              "name": "toUri",
              "type": "string"
            },
            {
              "internalType": "bytes32",
              "name": "linkType",
              "type": "bytes32"
            }
          ],
          "internalType": "struct DataTypes.unlinkAnyUriData",
          "name": "vars",
          "type": "tuple"
        }
      ],
      "name": "unlinkAnyUri",
      "outputs": [],
      "stateMutability": "nonpayable",
      "type": "function"
    },
    {
      "inputs": [
        {
          "components": [
            {
              "internalType": "uint256",
              "name": "fromCharacterId",
              "type": "uint256"
            },
            {
              "internalType": "uint256",
              "name": "toCharacterId",
              "type": "uint256"
            },
            {
              "internalType": "bytes32",
              "name": "linkType",
              "type": "bytes32"
            }
          ],
          "internalType": "struct DataTypes.unlinkCharacterData",
          "name": "vars",
          "type": "tuple"
        }
      ],
      "name": "unlinkCharacter",
      "outputs": [],
      "stateMutability": "nonpayable",
      "type": "function"
    },
    {
      "inputs": [
        {
          "internalType": "uint256",
          "name": "fromCharacterId",
          "type": "uint256"
        },
        {
          "components": [
            {
              "internalType": "uint256",
              "name": "fromCharacterId",
              "type": "uint256"
            },
            {
              "internalType": "uint256",
              "name": "toCharacterId",
              "type": "uint256"
            },
            {
              "internalType": "bytes32",
              "name": "linkType",
              "type": "bytes32"
            }
          ],
          "internalType": "struct DataTypes.CharacterLinkStruct",
          "name": "linkData",
          "type": "tuple"
        },
        {
          "internalType": "bytes32",
          "name": "linkType",
          "type": "bytes32"
        }
      ],
      "name": "unlinkCharacterLink",
      "outputs": [],
      "stateMutability": "nonpayable",
      "type": "function"
    },
    {
      "inputs": [
        {
          "components": [
            {
              "internalType": "uint256",
              "name": "fromCharacterId",
              "type": "uint256"
            },
            {
              "internalType": "address",
              "name": "tokenAddress",
              "type": "address"
            },
            {
              "internalType": "uint256",
              "name": "tokenId",
              "type": "uint256"
            },
            {
              "internalType": "bytes32",
              "name": "linkType",
              "type": "bytes32"
            }
          ],
          "internalType": "struct DataTypes.unlinkERC721Data",
          "name": "vars",
          "type": "tuple"
        }
      ],
      "name": "unlinkERC721",
      "outputs": [],
      "stateMutability": "nonpayable",
      "type": "function"
    },
    {
      "inputs": [
        {
          "components": [
            {
              "internalType": "uint256",
              "name": "fromCharacterId",
              "type": "uint256"
            },
            {
              "internalType": "uint256",
              "name": "toLinkListId",
              "type": "uint256"
            },
            {
              "internalType": "bytes32",
              "name": "linkType",
              "type": "bytes32"
            }
          ],
          "internalType": "struct DataTypes.unlinkLinklistData",
          "name": "vars",
          "type": "tuple"
        }
      ],
      "name": "unlinkLinklist",
      "outputs": [],
      "stateMutability": "nonpayable",
      "type": "function"
    },
    {
      "inputs": [
        {
          "components": [
            {
              "internalType": "uint256",
              "name": "fromCharacterId",
              "type": "uint256"
            },
            {
              "internalType": "uint256",
              "name": "toCharacterId",
              "type": "uint256"
            },
            {
              "internalType": "uint256",
              "name": "toNoteId",
              "type": "uint256"
            },
            {
              "internalType": "bytes32",
              "name": "linkType",
              "type": "bytes32"
            }
          ],
          "internalType": "struct DataTypes.unlinkNoteData",
          "name": "vars",
          "type": "tuple"
        }
      ],
      "name": "unlinkNote",
      "outputs": [],
      "stateMutability": "nonpayable",
      "type": "function"
    }
  ],
  "bytecode": {
    "object": "0x608060405234801561001057600080fd5b50615f7d80620000216000396000f3fe608060405234801561001057600080fd5b50600436106104495760003560e01c80638734bbfc11610241578063cb8e757e1161013b578063e56f2fe4116100c3578063f2ad807511610087578063f2ad807514610a5a578063f316bacd14610a6d578063f6479d7714610a80578063fd2d866f14610a93578063fe9299fb14610aa657600080fd5b8063e56f2fe4146109d2578063e7a1c1c0146109e5578063e985e9c5146109f8578063ec81d19414610a34578063ef0828ab14610a4757600080fd5b8063dabb05311161010a578063dabb053114610966578063db491e8014610979578063db8c198d14610999578063dbb164d9146109ac578063dca27135146109bf57600080fd5b8063cb8e757e14610902578063cd69fe6114610915578063d23b320b14610928578063d70e10c61461093b57600080fd5b8063a22cb465116101c9578063b9d328451161018d578063b9d32845146108a5578063ba9a9c2e146108b8578063c053f6b8146108cb578063c2a6fe3b146108dc578063c87b56dd146108ef57600080fd5b8063a22cb46514610846578063a6e6178d14610859578063a7ccb4bf1461086c578063af90b1121461087f578063b88d4fde1461089257600080fd5b806395d89b411161021057806395d89b41146107e557806395d9fa7d146107ed5780639864c307146108005780639a4dec18146108135780639a50248d1461082657600080fd5b80638734bbfc146107995780638b4ca06a146107ac57806392f7070b146107bf57806393f057e5146107d257600080fd5b806331b9d08c116103525780634f6ccce7116102da57806369492c971161029e57806369492c971461073a57806370a082311461074d57806374f345cf146107605780637daca6d014610773578063867884e61461078657600080fd5b80634f6ccce7146106db5780635a936d10146106ee5780635fb8818314610701578063628b644a146107145780636352211e1461072757600080fd5b806340ad34d81161032157806340ad34d81461067c57806342842e0e1461068f57806342966c68146106a257806344b82a24146106b557806347f94de7146106c857600080fd5b806331b9d08c14610617578063327b2a031461064357806333f06ee614610656578063388f50831461066957600080fd5b80631316529d116103d55780632209d145116103a45780632209d1451461057f57806323b872dd146105b557806329c301c2146105c85780632abc6bf6146105db5780632f745c591461060457600080fd5b80631316529d14610540578063144a3e831461055157806318160ddd14610564578063188b04b31461056c57600080fd5b8063081812fc1161041c578063081812fc146104df57806308cb68ff146104f2578063095ea7b3146105075780630c4dd5f21461051a5780630ff982441461052d57600080fd5b806301ffc9a71461044e57806304f3bcec1461047657806305f63c8a146104a157806306fdde03146104ca575b600080fd5b61046161045c36600461489c565b610acf565b60405190151581526020015b60405180910390f35b601754610489906001600160a01b031681565b6040516001600160a01b03909116815260200161046d565b6104896104af3660046148b9565b6000908152601660205260409020546001600160a01b031690565b6104d2610afa565b60405161046d919061492a565b6104896104ed3660046148b9565b610b8c565b610505610500366004614955565b610c26565b005b61050561051536600461499e565b610cbf565b610505610528366004614955565b610dd5565b61050561053b3660046149ca565b610e3a565b60045b60405190815260200161046d565b6104d261055f3660046148b9565b610f39565b600854610543565b61050561057a3660046149f8565b610f44565b61048961058d36600461499e565b6001600160a01b03918216600090815260106020908152604080832093835292905220541690565b6105056105c3366004614a2c565b611044565b6105436105d6366004614a7f565b611075565b6105436105e9366004614ab3565b6001600160a01b03166000908152600c602052604090205490565b61054361061236600461499e565b611121565b610489610625366004614ab3565b6001600160a01b039081166000908152601160205260409020541690565b610543610651366004614ae2565b6111b7565b610505610664366004614b78565b61137a565b6105056106773660046149f8565b6113ee565b61050561068a366004614bc3565b6114ab565b61050561069d366004614a2c565b611525565b6105056106b03660046148b9565b611540565b6105436106c3366004614bdf565b6115dd565b6105056106d6366004614b78565b611653565b6105436106e93660046148b9565b6116b8565b6105056106fc3660046149ca565b61174b565b61050561070f3660046149f8565b6117db565b610505610722366004614c23565b611898565b6104896107353660046148b9565b611924565b6105056107483660046149f8565b61199b565b61054361075b366004614ab3565b611a21565b61050561076e366004614c75565b611aa8565b610461610781366004614c97565b611b20565b610505610794366004614bc3565b611ca7565b6104616107a73660046148b9565b611d17565b6105436107ba3660046148b9565b611d45565b6105436107cd366004614ced565b611db1565b6105056107e03660046149ca565b611e45565b6104d2611eb4565b6105056107fb366004614d3e565b611ec3565b61050561080e3660046149f8565b611f49565b610543610821366004614ae2565b612006565b610839610834366004614d63565b61210e565b60405161046d9190614da4565b610505610854366004614e35565b6122bd565b610505610867366004614b78565b6122c8565b61054361087a3660046149f8565b61238c565b61054361088d366004614bdf565b612430565b6105056108a0366004614ece565b61246c565b6105056108b3366004614f8e565b6124a4565b6105056108c6366004614fc2565b612576565b6013546001600160a01b0316610489565b6105056108ea366004614c75565b6125e9565b6104d26108fd3660046148b9565b612659565b610505610910366004614f8e565b6126fe565b610505610923366004614f8e565b6127d8565b6105056109363660046149f8565b612936565b610543610949366004614c75565b6000918252600d6020908152604080842092845291905290205490565b6108396109743660046148b9565b6129b0565b61098c610987366004614c75565b612b37565b60405161046d9190614ff8565b6105056109a73660046149f8565b612c98565b6105056109ba366004614fc2565b612ce2565b6104d26109cd3660046148b9565b612d3a565b6105056109e036600461508e565b612dac565b6105056109f3366004614d3e565b612f61565b610461610a06366004615148565b6001600160a01b03918216600090815260056020908152604080832093909416825291909152205460ff1690565b6104d2610a423660046148b9565b612f74565b610505610a55366004614955565b612f94565b610505610a683660046148b9565b613003565b610543610a7b366004615176565b613052565b610505610a8e3660046149ca565b6131ae565b610505610aa1366004614955565b6131e8565b610489610ab43660046148b9565b6000908152600f60205260409020546001600160a01b031690565b60006001600160e01b0319821663780e9d6360e01b1480610af45750610af482613261565b92915050565b606060008054610b09906151d1565b80601f0160208091040260200160405190810160405280929190818152602001828054610b35906151d1565b8015610b825780601f10610b5757610100808354040283529160200191610b82565b820191906000526020600020905b815481529060010190602001808311610b6557829003601f168201915b5050505050905090565b6000818152600260205260408120546001600160a01b0316610c0a5760405162461bcd60e51b815260206004820152602c60248201527f4552433732313a20617070726f76656420717565727920666f72206e6f6e657860448201526b34b9ba32b73a103a37b5b2b760a11b60648201526084015b60405180910390fd5b506000908152600460205260409020546001600160a01b031690565b73__$ccaefba5abaae7361fb981898db80d4305$__63dfc34f25610c4d6020840184614ab3565b610c5d6040850160208601614ab3565b610c6a6040860186615206565b60116040518663ffffffff1660e01b8152600401610c8c959493929190615275565b60006040518083038186803b158015610ca457600080fd5b505af4158015610cb8573d6000803e3d6000fd5b5050505050565b6000610cca82611924565b9050806001600160a01b0316836001600160a01b03161415610d385760405162461bcd60e51b815260206004820152602160248201527f4552433732313a20617070726f76616c20746f2063757272656e74206f776e656044820152603960f91b6064820152608401610c01565b336001600160a01b0382161480610d545750610d548133610a06565b610dc65760405162461bcd60e51b815260206004820152603860248201527f4552433732313a20617070726f76652063616c6c6572206973206e6f74206f7760448201527f6e6572206e6f7220617070726f76656420666f7220616c6c00000000000000006064820152608401610c01565b610dd083836132b1565b505050565b610ddf813561331f565b73__$ccaefba5abaae7361fb981898db80d4305$__636252159e8235610e0b6040850160208601614ab3565b610e186040860186615206565b600f6040518663ffffffff1660e01b8152600401610c8c9594939291906152b4565b610e4481356133df565b6040516331a9108f60e11b81528135600482015273__$5abde9af541dd76010bdab2fdbd2e12ad0$__90633019fadd9083903090636352211e90602401602060405180830381865afa158015610e9e573d6000803e3d6000fd5b505050506040513d601f19601f82011682018060405250810190610ec291906152df565b60135485356000908152600d60209081526040808320818a0135845282529182902054825160e088901b6001600160e01b031916815286356004820152918601356024830152949091013560448201526001600160a01b0392831660648201529116608482015260a481019190915260c401610c8c565b6060610af482612659565b610f4e81356133df565b610f5b8160200135613481565b73__$5abde9af541dd76010bdab2fdbd2e12ad0$__637f9590a3823560208401356040850135610f8e6060870187615206565b6040516331a9108f60e11b8152883560048201523090636352211e90602401602060405180830381865afa158015610fca573d6000803e3d6000fd5b505050506040513d601f19601f82011682018060405250810190610fee91906152df565b6013546020808b01356000908152600a9091526040908190206005015490516001600160e01b031960e08b901b168152610c8c989796959493926001600160a01b03908116921690600d906018906004016152fc565b61104e33826134da565b61106a5760405162461bcd60e51b8152600401610c019061535c565b610dd08383836135d1565b600061108182356133df565b81356000908152600a60205260408120600301805482906110a1906153c3565b91829055506040516342a34a5360e01b815290915073__$28febe8707c2533835cf7587e52ef64d24$__906342a34a53906110ea90869085906000908190600e906004016154e8565b60006040518083038186803b15801561110257600080fd5b505af4158015611116573d6000803e3d6000fd5b509295945050505050565b600061112c83611a21565b821061118e5760405162461bcd60e51b815260206004820152602b60248201527f455243373231456e756d657261626c653a206f776e657220696e646578206f7560448201526a74206f6620626f756e647360a81b6064820152608401610c01565b506001600160a01b03919091166000908152600660209081526040808320938352929052205490565b60006111c383356133df565b6111dd6111d36020840184614ab3565b83602001356136c6565b6013546545524337323160d01b906000906001600160a01b0316632ea24efc8261120a6020880188614ab3565b6040516001600160e01b031960e085901b16815260048101929092526001600160a01b03166024820152602087013560448201526064016020604051808303816000875af1158015611260573d6000803e3d6000fd5b505050506040513d601f19601f82011682018060405250810190611284919061552d565b85356000908152600a602052604081206003018054929350909182906112a9906153c3565b9182905550905073__$28febe8707c2533835cf7587e52ef64d24$__6342a34a53878386866112db60208c018c614ab3565b8b6020013560405160200161130e92919060609290921b6bffffffffffffffffffffffff19168252601482015260340190565b604051602081830303815290604052600e6040518763ffffffff1660e01b815260040161134096959493929190615546565b60006040518083038186803b15801561135857600080fd5b505af415801561136c573d6000803e3d6000fd5b509298975050505050505050565b6113838361331f565b601354604051633c17845760e11b81526001600160a01b039091169063782f08ae906113b790869086908690600401615591565b600060405180830381600087803b1580156113d157600080fd5b505af11580156113e5573d6000803e3d6000fd5b50505050505050565b6113f881356133df565b6040516331a9108f60e11b81528135600482015273__$5abde9af541dd76010bdab2fdbd2e12ad0$__90637d25a4579083903090636352211e90602401602060405180830381865afa158015611452573d6000803e3d6000fd5b505050506040513d601f19601f8201168201806040525081019061147691906152df565b6013546040516001600160e01b031960e086901b168152610c8c9392916001600160a01b031690600d906018906004016155b4565b6114b581356133df565b60135460408051635cebf08d60e11b81528335600482015260208401356024820152908301356044820152606083013560648201526001600160a01b039091166084820152600d60a482015273__$5abde9af541dd76010bdab2fdbd2e12ad0$__9063b9d7e11a9060c401610c8c565b610dd08383836040518060200160405280600081525061246c565b6000818152600a6020526040808220905161155e9160010190615636565b60408051918290039091206000818152600b6020908152838220829055858252600a905291822082815590925090611599600183018261476b565b6115a760028301600061476b565b50600060038201556004810180546001600160a01b03199081169091556005909101805490911690556115d982613776565b5050565b60006115e983356133df565b82356000908152600a60205260408120600301805467131a5b9adb1a5cdd60c21b9285929091829061161a906153c3565b919050819055905073__$28febe8707c2533835cf7587e52ef64d24$__6342a34a53878386868a60405160200161130e91815260200190565b61165c836133df565b6000838152600a602052604090206116789060020183836147a5565b50827f17d7c9f69270ba135480ef16837f38b9d37d3ab291cbd3ba03982290c663199783836040516116ab9291906156d2565b60405180910390a2505050565b60006116c360085490565b82106117265760405162461bcd60e51b815260206004820152602c60248201527f455243373231456e756d657261626c653a20676c6f62616c20696e646578206f60448201526b7574206f6620626f756e647360a01b6064820152608401610c01565b60088281548110611739576117396156e6565b90600052602060002001549050919050565b61175581356133df565b60135481356000818152600d60209081526040808320818701358085529083529281902054905163d862986560e01b8152600481019490945290850135602484015260448301919091526001600160a01b039092166064820152608481019190915273__$5abde9af541dd76010bdab2fdbd2e12ad0$__9063d86298659060a401610c8c565b6117e581356133df565b6040516331a9108f60e11b81528135600482015273__$5abde9af541dd76010bdab2fdbd2e12ad0$__9063fb0b104f9083903090636352211e90602401602060405180830381865afa15801561183f573d6000803e3d6000fd5b505050506040513d601f19601f8201168201806040525081019061186391906152df565b6013546040516001600160e01b031960e086901b168152610c8c9392916001600160a01b031690600d906018906004016156fc565b6118a1846133df565b6118ab84846137d5565b6040516001626802bf60e01b0319815273__$28febe8707c2533835cf7587e52ef64d24$__9063ff97fd41906118ee908790879087908790600e9060040161578e565b60006040518083038186803b15801561190657600080fd5b505af415801561191a573d6000803e3d6000fd5b5050505050505050565b6000818152600260205260408120546001600160a01b031680610af45760405162461bcd60e51b815260206004820152602960248201527f4552433732313a206f776e657220717565727920666f72206e6f6e657869737460448201526832b73a103a37b5b2b760b91b6064820152608401610c01565b6119b56119ab6020830183614ab3565b826020013561388a565b73__$ccaefba5abaae7361fb981898db80d4305$__63384afeb36119dc6020840184614ab3565b60208401356119f16060860160408701614ab3565b6119fe6060870187615206565b60106040518763ffffffff1660e01b8152600401610c8c969594939291906157ae565b60006001600160a01b038216611a8c5760405162461bcd60e51b815260206004820152602a60248201527f4552433732313a2062616c616e636520717565727920666f7220746865207a65604482015269726f206164647265737360b01b6064820152608401610c01565b506001600160a01b031660009081526003602052604090205490565b611ab1826133df565b611abb82826137d5565b6000828152600e60209081526040808320848452825291829020600501805460ff60a81b1916600160a81b179055905182815283917f036469f3e73c83520cdefa197d7a9c854c2f8bc0164b82e9f2bd4aa7e150fd3091015b60405180910390a25050565b6017546000906001600160a01b0316611b3b57506001611ca0565b60175460405163599d32cd60e01b81526000916001600160a01b03169063599d32cd90611b6e90889088906004016156d2565b602060405180830381865afa158015611b8b573d6000803e3d6000fd5b505050506040513d601f19601f82011682018060405250810190611baf91906152df565b601754604051630354faeb60e41b81529192506000916001600160a01b039091169063354faeb090611be790899089906004016156d2565b602060405180830381865afa158015611c04573d6000803e3d6000fd5b505050506040513d601f19601f82011682018060405250810190611c2891906152df565b9050836001600160a01b0316826001600160a01b03161480611c5b5750836001600160a01b0316816001600160a01b0316145b15611c6b57600192505050611ca0565b6001600160a01b038216158015611c8957506001600160a01b038116155b15611c9957600192505050611ca0565b6000925050505b9392505050565b611cb181356133df565b60135481356000908152600d6020908152604080832060608601358452909152908190205490516317e9a8b160e31b815273__$5abde9af541dd76010bdab2fdbd2e12ad0$__9263bf4d458892610c8c9286926001600160a01b031691906004016157f5565b600080611d2383611924565b6001600160a01b03166000908152600c60205260409020549290921492915050565b60135460405162fba02760e01b8152600481018390526000916001600160a01b03169062fba02790602401602060405180830381865afa158015611d8d573d6000803e3d6000fd5b505050506040513d601f19601f82011682018060405250810190610af4919061552d565b6000611dbd83356133df565b82356000908152600a602052604081206003018054664164647265737360c81b926001600160a01b0386169290918290611df6906153c3565b919050819055905073__$28febe8707c2533835cf7587e52ef64d24$__6342a34a53878386868a60405160200161130e919060609190911b6bffffffffffffffffffffffff1916815260140190565b611e4f81356133df565b60135481356000908152600d6020908152604080832081860135845290915290819020549051633d7f9b3d60e11b815273__$5abde9af541dd76010bdab2fdbd2e12ad0$__92637aff367a92610c8c9286926001600160a01b03169190600401615847565b606060018054610b09906151d1565b611ecc826133df565b6040516384b44a2f60e01b8152600481018390526001600160a01b0382166024820152600a604482015273__$5f4b6d0e8d26e72e412687f6a7f2becc77$__906384b44a2f9060640160006040518083038186803b158015611f2d57600080fd5b505af4158015611f41573d6000803e3d6000fd5b505050505050565b611f5381356133df565b6040516331a9108f60e11b81528135600482015273__$5abde9af541dd76010bdab2fdbd2e12ad0$__90632217ec209083903090636352211e90602401602060405180830381865afa158015611fad573d6000803e3d6000fd5b505050506040513d601f19601f82011682018060405250810190611fd191906152df565b6013546040516001600160e01b031960e086901b168152610c8c9392916001600160a01b031690600d9060189060040161588f565b600061201283356133df565b601354604051635cb46be760e01b81526000600482018190528435602483015260208501356044830152634e6f746560e01b9290916001600160a01b0390911690635cb46be7906064016020604051808303816000875af115801561207b573d6000803e3d6000fd5b505050506040513d601f19601f8201168201806040525081019061209f919061552d565b85356000908152600a602052604081206003018054929350909182906120c4906153c3565b919050819055905073__$28febe8707c2533835cf7587e52ef64d24$__6342a34a53878386868a600001358b6020013560405160200161130e929190918252602082015260400190565b612116614829565b60008383604051612128929190615903565b604080519182900382206000818152600b602090815283822054808352600a82529184902060c0860190945283548552600184018054939650919493929084019190612173906151d1565b80601f016020809104026020016040519081016040528092919081815260200182805461219f906151d1565b80156121ec5780601f106121c1576101008083540402835291602001916121ec565b820191906000526020600020905b8154815290600101906020018083116121cf57829003601f168201915b50505050508152602001600282018054612205906151d1565b80601f0160208091040260200160405190810160405280929190818152602001828054612231906151d1565b801561227e5780601f106122535761010080835404028352916020019161227e565b820191906000526020600020905b81548152906001019060200180831161226157829003601f168201915b50505091835250506003820154602082015260048201546001600160a01b03908116604083015260059092015490911660609091015295945050505050565b6115d9338383613944565b6122d1836133df565b6122df828261078186611924565b61231f5760405162461bcd60e51b815260206004820152601160248201527048616e646c654e6f74456c696769626c6560781b6044820152606401610c01565b60405163130f361d60e01b815273__$5f4b6d0e8d26e72e412687f6a7f2becc77$__9063130f361d9061236090869086908690600b90600a90600401615913565b60006040518083038186803b15801561237857600080fd5b505af41580156113e5573d6000803e3d6000fd5b600061239d823560208401356137d5565b73__$28febe8707c2533835cf7587e52ef64d24$__635be69415833560208501356123ce6060870160408801614ab3565b6123db6060880188615206565b6014546040516001600160e01b031960e089901b1681526124139695949392916001600160a01b031690600a90600e90600401615941565b602060405180830381865af4158015611d8d573d6000803e3d6000fd5b600061243c83356133df565b82356000908152600a6020526040812060030180546650726f66696c6560c81b9285929091829061161a906153c3565b61247633836134da565b6124925760405162461bcd60e51b8152600401610c019061535c565b61249e84848484613a13565b50505050565b6124ae81356133df565b6124c0816020013582604001356137d5565b6040516331a9108f60e11b81528135600482015273__$5abde9af541dd76010bdab2fdbd2e12ad0$__906316fba3cf9083903090636352211e90602401602060405180830381865afa15801561251a573d6000803e3d6000fd5b505050506040513d601f19601f8201168201806040525081019061253e91906152df565b6013546040516001600160e01b031960e086901b168152610c8c9392916001600160a01b031690600e90600d9060189060040161598f565b61257f836133df565b60135482356000908152600d6020908152604080832081870135845290915290819020549051635ced65d160e01b815273__$5abde9af541dd76010bdab2fdbd2e12ad0$__92635ced65d192612360928892889288926001600160a01b0390921691600401615a17565b6125f2826133df565b6125fc82826137d5565b6000828152600e60209081526040808320848452825291829020600501805460ff60a01b1916600160a01b179055905182815283917f4f1db9708b537c1d26a7af4b235fd079bf2342d92a276e27eb6c8717e8bbcf939101611b14565b6000818152600a60205260409020600201805460609190612679906151d1565b80601f01602080910402602001604051908101604052809291908181526020018280546126a5906151d1565b80156126f25780601f106126c7576101008083540402835291602001916126f2565b820191906000526020600020905b8154815290600101906020018083116126d557829003601f168201915b50505050509050919050565b61270881356133df565b61272561271b6040830160208401614ab3565b82604001356136c6565b6040516331a9108f60e11b81528135600482015273__$5abde9af541dd76010bdab2fdbd2e12ad0$__906379eda9fc9083903090636352211e90602401602060405180830381865afa15801561277f573d6000803e3d6000fd5b505050506040513d601f19601f820116820180604052508101906127a391906152df565b6013546040516001600160e01b031960e086901b168152610c8c9392916001600160a01b031690600d90601890600401615a64565b6127f56127e86020830183615206565b6107816020850185614ab3565b6128355760405162461bcd60e51b815260206004820152601160248201527048616e646c654e6f74456c696769626c6560781b6044820152606401610c01565b601254612843906001615aca565b60125561285e6128566020830183614ab3565b601254613a46565b601254604051632902741560e01b815273__$5f4b6d0e8d26e72e412687f6a7f2becc77$__916329027415916128a291859160019190600b90600a90600401615ae2565b60006040518083038186803b1580156128ba57600080fd5b505af41580156128ce573d6000803e3d6000fd5b50600c9250600091506128e690506020840184614ab3565b6001600160a01b0316815260208101919091526040016000205461293357601254600c60006129186020850185614ab3565b6001600160a01b031681526020810191909152604001600020555b50565b61294081356133df565b61294f813560208301356137d5565b73__$ccaefba5abaae7361fb981898db80d4305$__6320828a02823560208401356129806060860160408701614ab3565b61298d6060870187615206565b600e6040518763ffffffff1660e01b8152600401610c8c96959493929190615bc3565b6129b8614829565b600a60008381526020019081526020016000206040518060c0016040529081600082015481526020016001820180546129f0906151d1565b80601f0160208091040260200160405190810160405280929190818152602001828054612a1c906151d1565b8015612a695780601f10612a3e57610100808354040283529160200191612a69565b820191906000526020600020905b815481529060010190602001808311612a4c57829003601f168201915b50505050508152602001600282018054612a82906151d1565b80601f0160208091040260200160405190810160405280929190818152602001828054612aae906151d1565b8015612afb5780601f10612ad057610100808354040283529160200191612afb565b820191906000526020600020905b815481529060010190602001808311612ade57829003601f168201915b50505091835250506003820154602082015260048201546001600160a01b03908116604083015260059092015490911660609091015292915050565b60408051610100808201835260008083526020808401829052606084860181905284018290526080840182905260a0840182905260c0840182905260e08401829052868252600e81528482208683528152908490208451928301855280548352600181015491830191909152600281018054939492939192840191612bbb906151d1565b80601f0160208091040260200160405190810160405280929190818152602001828054612be7906151d1565b8015612c345780601f10612c0957610100808354040283529160200191612c34565b820191906000526020600020905b815481529060010190602001808311612c1757829003601f168201915b505050918352505060038201546001600160a01b039081166020830152600483015481166040830152600590920154918216606082015260ff600160a01b8304811615156080830152600160a81b909204909116151560a090910152905092915050565b612ca281356133df565b612cb1813560208301356137d5565b73__$ccaefba5abaae7361fb981898db80d4305$__631f2ffb69823560208401356129806060860160408701614ab3565b612ceb836133df565b6013546040516282174160e71b815273__$5abde9af541dd76010bdab2fdbd2e12ad0$__9163410ba080916123609187918791339188916001600160a01b031690600d90601890600401615bf1565b601354604051632b05429560e21b8152600481018390526060916001600160a01b03169063ac150a5490602401600060405180830381865afa158015612d84573d6000803e3d6000fd5b505050506040513d6000823e601f3d908101601f19168201604052610af49190810190615c4e565b601454600160a81b900460ff1615808015612dd457506014546001600160a01b90910460ff16105b80612df55750303b158015612df55750601454600160a01b900460ff166001145b612e585760405162461bcd60e51b815260206004820152602e60248201527f496e697469616c697a61626c653a20636f6e747261637420697320616c72656160448201526d191e481a5b9a5d1a585b1a5e995960921b6064820152608401610c01565b6014805460ff60a01b1916600160a01b1790558015612e85576014805460ff60a81b1916600160a81b1790555b612e9189898989613b94565b601380546001600160a01b03199081166001600160a01b0388811691909117909255601480548216878416179055601580548216868416179055601780549091169184169190911790556040514281527f400175a56dd3710794078f7b9dbe8296ac94c5a248dfd51bb22ed4ab9eaa9fbf9060200160405180910390a18015612f56576014805460ff60a81b19169055604051600181527f7f26b83ff96e1f2b6a682f133852f6798a09c465da95921460cefb38474024989060200160405180910390a15b505050505050505050565b612f6a82613be5565b6115d98282613c65565b6000818152600a60205260409020600101805460609190612679906151d1565b612f9e81356133df565b60135481356000908152600d602090815260408083208186013584529091529081902054905163bf5c00c160e01b815273__$5abde9af541dd76010bdab2fdbd2e12ad0$__9263bf5c00c192610c8c9286926001600160a01b03169190600401615cbb565b61300c816133df565b336000818152600c602052604080822080549085905590519092839285927fce95332e6082aebeb8058a7b56d1a109f67d6550552ed04d36aca4a6acd4d7de9190a45050565b600061305e84356133df565b601354604051633610bf0960e11b815265416e7955726960d01b916000916001600160a01b0390911690636c217e12906130a090849089908990600401615591565b6020604051808303816000875af11580156130bf573d6000803e3d6000fd5b505050506040513d601f19601f820116820180604052508101906130e3919061552d565b86356000908152600a60205260408120600301805492935090918290613108906153c3565b919050819055905073__$28febe8707c2533835cf7587e52ef64d24$__6342a34a53888386868b8b604051602001613141929190615903565b604051602081830303815290604052600e6040518763ffffffff1660e01b815260040161317396959493929190615546565b60006040518083038186803b15801561318b57600080fd5b505af415801561319f573d6000803e3d6000fd5b50929998505050505050505050565b61293381356131c36040840160208501614ab3565b836040013560405180604001604052806002815260200161060f60f31b815250613cc9565b6131f281356133df565b73__$5f4b6d0e8d26e72e412687f6a7f2becc77$__631dc83133823561321e6040850160208601614ab3565b61322b6040860186615206565b86356000908152600a60205260409081902090516001600160e01b031960e088901b168152610c8c9594939291906004016152b4565b60006001600160e01b031982166380ac58cd60e01b148061329257506001600160e01b03198216635b5e139f60e01b145b80610af457506301ffc9a760e01b6001600160e01b0319831614610af4565b600081815260046020526040902080546001600160a01b0319166001600160a01b03841690811790915581906132e682611924565b6001600160a01b03167f8c5be1e5ebec7d5bd14f71427d1e84f3dd0314c0f7b2291e5b200ac8c7c3b92560405160405180910390a45050565b6013546040516331a9108f60e11b8152600481018390526001600160a01b0390911690636352211e90602401602060405180830381865afa158015613368573d6000803e3d6000fd5b505050506040513d601f19601f8201168201806040525081019061338c91906152df565b6001600160a01b0316336001600160a01b0316146129335760405162461bcd60e51b815260206004820152601060248201526f2737ba2634b735a634b9ba27bbb732b960811b6044820152606401610c01565b60006133ea82611924565b9050336001600160a01b038216148061341957506000828152601660205260409020546001600160a01b031633145b806134415750326001600160a01b03821614801561344157506015546001600160a01b031633145b6115d95760405162461bcd60e51b81526020600482015260116024820152702737ba21b430b930b1ba32b927bbb732b960791b6044820152606401610c01565b6000818152600260205260409020546001600160a01b03166129335760405162461bcd60e51b81526020600482015260126024820152714368617261637465724e6f7445786973747360701b6044820152606401610c01565b6000818152600260205260408120546001600160a01b03166135535760405162461bcd60e51b815260206004820152602c60248201527f4552433732313a206f70657261746f7220717565727920666f72206e6f6e657860448201526b34b9ba32b73a103a37b5b2b760a11b6064820152608401610c01565b600061355e83611924565b9050806001600160a01b0316846001600160a01b031614806135995750836001600160a01b031661358e84610b8c565b6001600160a01b0316145b806135c957506001600160a01b0380821660009081526005602090815260408083209388168352929052205460ff165b949350505050565b60008181526018602052604081206135e890613f52565b905060005b81518110156136ba576000838152600d602052604081208351829085908590811061361a5761361a6156e6565b60209081029190910181015182528101919091526040908101600020546013549151632142170760e11b81526001600160a01b0389811660048301528881166024830152604482018390529193509116906342842e0e90606401600060405180830381600087803b15801561368e57600080fd5b505af11580156136a2573d6000803e3d6000fd5b505050505080806136b2906153c3565b9150506135ed565b5061249e848484613f5d565b6040516331a9108f60e11b8152600481018290526001600160a01b03831690636352211e90602401602060405180830381865afa15801561370b573d6000803e3d6000fd5b505050506040513d601f19601f8201168201806040525081019061372f91906152df565b6001600160a01b03166115d95760405162461bcd60e51b815260206004820152600f60248201526e5245433732314e6f7445786973747360881b6044820152606401610c01565b61378033826134da565b6137cc5760405162461bcd60e51b815260206004820152601b60248201527f4e4654426173653a204e6f744f776e65724f72417070726f76656400000000006044820152606401610c01565b61293381614104565b6000828152600e60209081526040808320848452909152902060050154600160a01b900460ff16156138395760405162461bcd60e51b815260206004820152600d60248201526c139bdd19525cd1195b195d1959609a1b6044820152606401610c01565b6000828152600a60205260409020600301548111156115d95760405162461bcd60e51b815260206004820152600d60248201526c4e6f74654e6f7445786973747360981b6044820152606401610c01565b6040516331a9108f60e11b8152600481018290526001600160a01b03831690636352211e90602401602060405180830381865afa1580156138cf573d6000803e3d6000fd5b505050506040513d601f19601f820116820180604052508101906138f391906152df565b6001600160a01b0316336001600160a01b0316146115d95760405162461bcd60e51b815260206004820152600e60248201526d2737ba22a9219b9918a7bbb732b960911b6044820152606401610c01565b816001600160a01b0316836001600160a01b031614156139a65760405162461bcd60e51b815260206004820152601960248201527f4552433732313a20617070726f766520746f2063616c6c6572000000000000006044820152606401610c01565b6001600160a01b03838116600081815260056020908152604080832094871680845294825291829020805460ff191686151590811790915591519182527f17307eab39ab6107e8899845ad3d59bd9653f200f220920489ca2b5937696c31910160405180910390a3505050565b613a1e8484846135d1565b613a2a848484846141ab565b61249e5760405162461bcd60e51b8152600401610c0190615d13565b6001600160a01b038216613a9c5760405162461bcd60e51b815260206004820181905260248201527f4552433732313a206d696e7420746f20746865207a65726f20616464726573736044820152606401610c01565b6000818152600260205260409020546001600160a01b031615613b015760405162461bcd60e51b815260206004820152601c60248201527f4552433732313a20746f6b656e20616c7265616479206d696e746564000000006044820152606401610c01565b613b0d600083836142a9565b6001600160a01b0382166000908152600360205260408120805460019290613b36908490615aca565b909155505060008181526002602052604080822080546001600160a01b0319166001600160a01b03861690811790915590518392907fddf252ad1be2c89b69c2b068fc378daa952ba7f163c4a11628f55a4df523b3ef908290a45050565b613ba084848484614314565b7f414cd0b34676984f09a5f76ce9718d4062e50283abe0e7e274a9a5b4e0c99c308484848442604051613bd7959493929190615d65565b60405180910390a150505050565b6000613bf082611924565b9050336001600160a01b03821614806134415750326001600160a01b03821614801561344157506015546001600160a01b031633146115d95760405162461bcd60e51b81526020600482015260116024820152702737ba21b430b930b1ba32b927bbb732b960791b6044820152606401610c01565b60008281526016602090815260409182902080546001600160a01b0319166001600160a01b038516908117909155915142815284917f691b92a93c526c4f5a357e56a33c33f6250f94e19e6c49be805800615c414931910160405180910390a35050565b613cd2846133df565b6001600160a01b0383166000908152600c602052604090205415613d4e5760405162461bcd60e51b815260206004820152602d60248201527f546172676574206164647265737320616c726561647920686173207072696d6160448201526c393c9031b430b930b1ba32b91760991b6064820152608401610c01565b6000601260008154613d5f906153c3565b91829055509050613d708482613a46565b73__$5f4b6d0e8d26e72e412687f6a7f2becc77$__63290274156040518060a00160405280876001600160a01b03168152602001613db8886001600160a01b0316601461432d565b815260200160405180602001604052806000815250815260200160006001600160a01b0316815260200160405180602001604052806000815250815250600084600b600a6040518663ffffffff1660e01b8152600401613e1c959493929190615d9f565b60006040518083038186803b158015613e3457600080fd5b505af4158015613e48573d6000803e3d6000fd5b505050506001600160a01b0384166000908152600c602052604090819020829055516331a9108f60e11b81526004810186905273__$5abde9af541dd76010bdab2fdbd2e12ad0$__90637f9590a39087908490879087903090636352211e90602401602060405180830381865afa158015613ec7573d6000803e3d6000fd5b505050506040513d601f19601f82011682018060405250810190613eeb91906152df565b6013546040516001600160e01b031960e089901b168152613f269695949392916001600160a01b031690600090600d90601890600401615e2c565b60006040518083038186803b158015613f3e57600080fd5b505af4158015612f56573d6000803e3d6000fd5b6060610af4826144c8565b826001600160a01b0316613f7082611924565b6001600160a01b031614613fd45760405162461bcd60e51b815260206004820152602560248201527f4552433732313a207472616e736665722066726f6d20696e636f72726563742060448201526437bbb732b960d91b6064820152608401610c01565b6001600160a01b0382166140365760405162461bcd60e51b8152602060048201526024808201527f4552433732313a207472616e7366657220746f20746865207a65726f206164646044820152637265737360e01b6064820152608401610c01565b6140418383836142a9565b61404c6000826132b1565b6001600160a01b0383166000908152600360205260408120805460019290614075908490615e8a565b90915550506001600160a01b03821660009081526003602052604081208054600192906140a3908490615aca565b909155505060008181526002602052604080822080546001600160a01b0319166001600160a01b0386811691821790925591518493918716917fddf252ad1be2c89b69c2b068fc378daa952ba7f163c4a11628f55a4df523b3ef91a4505050565b600061410f82611924565b905061411d816000846142a9565b6141286000836132b1565b6001600160a01b0381166000908152600360205260408120805460019290614151908490615e8a565b909155505060008281526002602052604080822080546001600160a01b0319169055518391906001600160a01b038416907fddf252ad1be2c89b69c2b068fc378daa952ba7f163c4a11628f55a4df523b3ef908390a45050565b60006001600160a01b0384163b1561429e57604051630a85bd0160e11b81526001600160a01b0385169063150b7a02906141ef903390899088908890600401615ea1565b6020604051808303816000875af192505050801561422a575060408051601f3d908101601f1916820190925261422791810190615ede565b60015b614284573d808015614258576040519150601f19603f3d011682016040523d82523d6000602084013e61425d565b606091505b50805161427c5760405162461bcd60e51b8152600401610c0190615d13565b805181602001fd5b6001600160e01b031916630a85bd0160e11b1490506135c9565b506001949350505050565b6000818152601660205260409020546001600160a01b0316156142d1576142d1816000613c65565b6001600160a01b0383166000908152600c602052604090205415614309576001600160a01b0383166000908152600c60205260408120555b610dd0838383614523565b614320600085856147a5565b50610cb8600183836147a5565b6060600061433c836002615efb565b614347906002615aca565b6001600160401b0381111561435e5761435e614e61565b6040519080825280601f01601f191660200182016040528015614388576020820181803683370190505b509050600360fc1b816000815181106143a3576143a36156e6565b60200101906001600160f81b031916908160001a905350600f60fb1b816001815181106143d2576143d26156e6565b60200101906001600160f81b031916908160001a90535060006143f6846002615efb565b614401906001615aca565b90505b6001811115614479576f181899199a1a9b1b9c1cb0b131b232b360811b85600f1660108110614435576144356156e6565b1a60f81b82828151811061444b5761444b6156e6565b60200101906001600160f81b031916908160001a90535060049490941c9361447281615f1a565b9050614404565b508315611ca05760405162461bcd60e51b815260206004820181905260248201527f537472696e67733a20686578206c656e67746820696e73756666696369656e746044820152606401610c01565b6060816000018054806020026020016040519081016040528092919081815260200182805480156126f257602002820191906000526020600020905b8154815260200190600101908083116145045750505050509050919050565b6001600160a01b03831661457e5761457981600880546000838152600960205260408120829055600182018355919091527ff3f7a9fe364faab93b216da50a3214154f22a0a2b415b23a84c8169e8b636ee30155565b6145a1565b816001600160a01b0316836001600160a01b0316146145a1576145a183826145db565b6001600160a01b0382166145b857610dd081614678565b826001600160a01b0316826001600160a01b031614610dd057610dd08282614727565b600060016145e884611a21565b6145f29190615e8a565b600083815260076020526040902054909150808214614645576001600160a01b03841660009081526006602090815260408083208584528252808320548484528184208190558352600790915290208190555b5060009182526007602090815260408084208490556001600160a01b039094168352600681528383209183525290812055565b60085460009061468a90600190615e8a565b600083815260096020526040812054600880549394509092849081106146b2576146b26156e6565b9060005260206000200154905080600883815481106146d3576146d36156e6565b600091825260208083209091019290925582815260099091526040808220849055858252812055600880548061470b5761470b615f31565b6001900381819060005260206000200160009055905550505050565b600061473283611a21565b6001600160a01b039093166000908152600660209081526040808320868452825280832085905593825260079052919091209190915550565b508054614777906151d1565b6000825580601f10614787575050565b601f0160209004906000526020600020908101906129339190614871565b8280546147b1906151d1565b90600052602060002090601f0160209004810192826147d35760008555614819565b82601f106147ec5782800160ff19823516178555614819565b82800160010185558215614819579182015b828111156148195782358255916020019190600101906147fe565b50614825929150614871565b5090565b6040518060c001604052806000815260200160608152602001606081526020016000815260200160006001600160a01b0316815260200160006001600160a01b031681525090565b5b808211156148255760008155600101614872565b6001600160e01b03198116811461293357600080fd5b6000602082840312156148ae57600080fd5b8135611ca081614886565b6000602082840312156148cb57600080fd5b5035919050565b60005b838110156148ed5781810151838201526020016148d5565b8381111561249e5750506000910152565b600081518084526149168160208601602086016148d2565b601f01601f19169290920160200192915050565b602081526000611ca060208301846148fe565b60006060828403121561494f57600080fd5b50919050565b60006020828403121561496757600080fd5b81356001600160401b0381111561497d57600080fd5b6135c98482850161493d565b6001600160a01b038116811461293357600080fd5b600080604083850312156149b157600080fd5b82356149bc81614989565b946020939093013593505050565b6000606082840312156149dc57600080fd5b611ca0838361493d565b60006080828403121561494f57600080fd5b600060208284031215614a0a57600080fd5b81356001600160401b03811115614a2057600080fd5b6135c9848285016149e6565b600080600060608486031215614a4157600080fd5b8335614a4c81614989565b92506020840135614a5c81614989565b929592945050506040919091013590565b600060e0828403121561494f57600080fd5b600060208284031215614a9157600080fd5b81356001600160401b03811115614aa757600080fd5b6135c984828501614a6d565b600060208284031215614ac557600080fd5b8135611ca081614989565b60006040828403121561494f57600080fd5b60008060608385031215614af557600080fd5b82356001600160401b03811115614b0b57600080fd5b614b1785828601614a6d565b925050614b278460208501614ad0565b90509250929050565b60008083601f840112614b4257600080fd5b5081356001600160401b03811115614b5957600080fd5b602083019150836020828501011115614b7157600080fd5b9250929050565b600080600060408486031215614b8d57600080fd5b8335925060208401356001600160401b03811115614baa57600080fd5b614bb686828701614b30565b9497909650939450505050565b600060808284031215614bd557600080fd5b611ca083836149e6565b60008060408385031215614bf257600080fd5b82356001600160401b03811115614c0857600080fd5b614c1485828601614a6d565b95602094909401359450505050565b60008060008060608587031215614c3957600080fd5b843593506020850135925060408501356001600160401b03811115614c5d57600080fd5b614c6987828801614b30565b95989497509550505050565b60008060408385031215614c8857600080fd5b50508035926020909101359150565b600080600060408486031215614cac57600080fd5b83356001600160401b03811115614cc257600080fd5b614cce86828701614b30565b9094509250506020840135614ce281614989565b809150509250925092565b60008060408385031215614d0057600080fd5b82356001600160401b03811115614d1657600080fd5b614d2285828601614a6d565b9250506020830135614d3381614989565b809150509250929050565b60008060408385031215614d5157600080fd5b823591506020830135614d3381614989565b60008060208385031215614d7657600080fd5b82356001600160401b03811115614d8c57600080fd5b614d9885828601614b30565b90969095509350505050565b60208152815160208201526000602083015160c06040840152614dca60e08401826148fe565b90506040840151601f19848303016060850152614de782826148fe565b91505060608401516080840152608084015160018060a01b0380821660a08601528060a08701511660c086015250508091505092915050565b80358015158114614e3057600080fd5b919050565b60008060408385031215614e4857600080fd5b8235614e5381614989565b9150614b2760208401614e20565b634e487b7160e01b600052604160045260246000fd5b604051601f8201601f191681016001600160401b0381118282101715614e9f57614e9f614e61565b604052919050565b60006001600160401b03821115614ec057614ec0614e61565b50601f01601f191660200190565b60008060008060808587031215614ee457600080fd5b8435614eef81614989565b93506020850135614eff81614989565b92506040850135915060608501356001600160401b03811115614f2157600080fd5b8501601f81018713614f3257600080fd5b8035614f45614f4082614ea7565b614e77565b818152886020838501011115614f5a57600080fd5b8160208401602083013760006020838301015280935050505092959194509250565b600060a0828403121561494f57600080fd5b600060208284031215614fa057600080fd5b81356001600160401b03811115614fb657600080fd5b6135c984828501614f7c565b600080600060a08486031215614fd757600080fd5b83359250614fe8856020860161493d565b9150608084013590509250925092565b6020815281516020820152602082015160408201526000604083015161010080606085015261502b6101208501836148fe565b9150606085015160018060a01b0380821660808701528060808801511660a0870152505060a085015161506960c08601826001600160a01b03169052565b5060c085015180151560e08601525060e0850151801515858301525090949350505050565b60008060008060008060008060c0898b0312156150aa57600080fd5b88356001600160401b03808211156150c157600080fd5b6150cd8c838d01614b30565b909a50985060208b01359150808211156150e657600080fd5b506150f38b828c01614b30565b909750955050604089013561510781614989565b9350606089013561511781614989565b9250608089013561512781614989565b915060a089013561513781614989565b809150509295985092959890939650565b6000806040838503121561515b57600080fd5b823561516681614989565b91506020830135614d3381614989565b60008060006040848603121561518b57600080fd5b83356001600160401b03808211156151a257600080fd5b6151ae87838801614a6d565b945060208601359150808211156151c457600080fd5b50614bb686828701614b30565b600181811c908216806151e557607f821691505b6020821081141561494f57634e487b7160e01b600052602260045260246000fd5b6000808335601e1984360301811261521d57600080fd5b8301803591506001600160401b0382111561523757600080fd5b602001915036819003821315614b7157600080fd5b81835281816020850137506000828201602090810191909152601f909101601f19169091010190565b6001600160a01b038681168252851660208201526080604082018190526000906152a2908301858761524c565b90508260608301529695505050505050565b8581526001600160a01b03851660208201526080604082018190526000906152a2908301858761524c565b6000602082840312156152f157600080fd5b8151611ca081614989565b60006101208c83528b60208401528a60408401528060608401526153238184018a8c61524c565b6001600160a01b03988916608085015296881660a084015250509290941660c083015260e0820152610100019190915295945050505050565b60208082526031908201527f4552433732313a207472616e736665722063616c6c6572206973206e6f74206f6040820152701ddb995c881b9bdc88185c1c1c9bdd9959607a1b606082015260800190565b634e487b7160e01b600052601160045260246000fd5b60006000198214156153d7576153d76153ad565b5060010190565b6000808335601e198436030181126153f557600080fd5b83016020810192503590506001600160401b0381111561541457600080fd5b803603831315614b7157600080fd5b80358252600061543660208301836153de565b60e0602086015261544b60e08601828461524c565b915050604083013561545c81614989565b6001600160a01b03818116604087015261547960608601866153de565b9250868403606088015261548e84848361524c565b935050608085013591506154a182614989565b1660808501526154b460a08401846153de565b85830360a08701526154c783828461524c565b925050506154d760c08401614e20565b151560c08501528091505092915050565b60c0815260006154fb60c0830188615423565b602083810197909752604083019590955250606081019290925281830360808301526000835260a09091015201919050565b60006020828403121561553f57600080fd5b5051919050565b60c08152600061555960c0830189615423565b876020840152866040840152856060840152828103608084015261557d81866148fe565b9150508260a0830152979650505050505050565b8381526040602082015260006155ab60408301848661524c565b95945050505050565b60a08152853560a0820152600060208701356155cf81614989565b6001600160a01b0381811660c0850152604089013560e08501526155f660608a018a6153de565b9250608061010086015261560f6101208601848361524c565b98821660208601525095909516604083015250606081019290925260809091015250919050565b600080835481600182811c91508083168061565257607f831692505b602080841082141561567257634e487b7160e01b86526022600452602486fd5b8180156156865760018114615697576156c4565b60ff198616895284890196506156c4565b60008a81526020902060005b868110156156bc5781548b8201529085019083016156a3565b505084890196505b509498975050505050505050565b6020815260006135c960208301848661524c565b634e487b7160e01b600052603260045260246000fd5b60a08152853560a0820152600061571660208801886153de565b608060c085015261572c6101208501828461524c565b915050604088013560e084015261574660608901896153de565b848303609f190161010086015261575e83828461524c565b6001600160a01b03998a166020870152979098166040850152505050606081019290925260809091015292915050565b8581528460208201526080604082015260006152a260808301858761524c565b6001600160a01b038781168252602082018790528516604082015260a0606082018190526000906157e2908301858761524c565b9050826080830152979650505050505050565b8335815260c08101602085013561580b81614989565b6001600160a01b039081166020840152604086810135908401526060958601359583019590955292909316608084015260a09092019190915290565b8335815260a08101602085013561585d81614989565b6001600160a01b0390811660208401526040958601359583019590955292909316606084015260809092019190915290565b60a08152853560a0820152602086013560c0820152604086013560e082015260006158bd60608801886153de565b60806101008501526158d46101208501828461524c565b6001600160a01b0398891660208601529690971660408401525050606081019290925260809091015292915050565b8183823760009101908152919050565b85815260806020820152600061592d60808301868861524c565b604083019490945250606001529392505050565b888152876020820152600060018060a01b03808916604084015260e0606084015261597060e08401888a61524c565b951660808301525060a081019290925260c09091015295945050505050565b60c08152863560c0820152602087013560e08201526040870135610100820152606087013561012082015260006159c960808901896153de565b60a06101408501526159e06101608501828461524c565b6001600160a01b03998a16602086015297909816604084015250506060810193909352608083019190915260a09091015292915050565b85815260e08101615a3f60208301878035825260208082013590830152604090810135910152565b60808201949094526001600160a01b039290921660a083015260c09091015292915050565b60a08152853560a082015260006020870135615a7f81614989565b6001600160a01b0381811660c0850152604089013560e08501526060890135610100850152615ab160808a018a6153de565b925060a061012086015261560f6101408601848361524c565b60008219821115615add57615add6153ad565b500190565b60a0815260008635615af381614989565b6001600160a01b0381811660a0850152615b1060208a018a6153de565b925060a060c0860152615b286101408601848361524c565b925050615b3860408a018a6153de565b609f19808786030160e0880152615b5085838561524c565b945060608c01359250615b6283614989565b838316610100880152615b7860808d018d6153de565b9450925080878603016101208801525050615b9483838361524c565b9350505050615ba7602083018715159052565b8460408301528360608301528260808301529695505050505050565b86815285602082015260018060a01b038516604082015260a0606082015260006157e260a08301858761524c565b8781526101208101615c1a60208301898035825260208082013590830152604090810135910152565b6001600160a01b03968716608083015260a08201959095529290941660c083015260e0820152610100019190915292915050565b600060208284031215615c6057600080fd5b81516001600160401b03811115615c7657600080fd5b8201601f81018413615c8757600080fd5b8051615c95614f4082614ea7565b818152856020838501011115615caa57600080fd5b6155ab8260208301602086016148d2565b60608152833560608201526000615cd560208601866153de565b60606080850152615cea60c08501828461524c565b60409788013560a08601526001600160a01b039690961660208501525050509092019190915290565b60208082526032908201527f4552433732313a207472616e7366657220746f206e6f6e20455243373231526560408201527131b2b4bb32b91034b6b83632b6b2b73a32b960711b606082015260800190565b606081526000615d7960608301878961524c565b8281036020840152615d8c81868861524c565b9150508260408301529695505050505050565b60a08152600060018060a01b038088511660a0840152602088015160a060c0850152615dcf6101408501826148fe565b90506040890151609f19808684030160e0870152615ded83836148fe565b92508360608c01511661010087015260808b0151935080868403016101208701525050615e1a81836148fe565b92505050615ba7602083018715159052565b60006101208b83528a6020840152896040840152806060840152615e528184018a6148fe565b6001600160a01b03988916608085015296881660a084015250509290941660c083015260e08201526101000191909152949350505050565b600082821015615e9c57615e9c6153ad565b500390565b6001600160a01b0385811682528416602082015260408101839052608060608201819052600090615ed4908301846148fe565b9695505050505050565b600060208284031215615ef057600080fd5b8151611ca081614886565b6000816000190483118215151615615f1557615f156153ad565b500290565b600081615f2957615f296153ad565b506000190190565b634e487b7160e01b600052603160045260246000fdfea264697066735822122083c59f066f67e7227970351528ba4ef2a480fbd72de352dd3a386c29ba3b823164736f6c634300080a0033",
    "linkReferences": {
      "src/libraries/CharacterLogic.sol": {
        "CharacterLogic": [
          {
            "start": 7961,
            "length": 20
          },
          {
            "start": 9039,
            "length": 20
          },
          {
            "start": 10385,
            "length": 20
          },
          {
            "start": 12821,
            "length": 20
          },
          {
            "start": 15763,
            "length": 20
          }
        ]
      },
      "src/libraries/LinkLogic.sol": {
        "LinkLogic": [
          {
            "start": 3707,
            "length": 20
          },
          {
            "start": 3966,
            "length": 20
          },
          {
            "start": 5167,
            "length": 20
          },
          {
            "start": 5412,
            "length": 20
          },
          {
            "start": 6106,
            "length": 20
          },
          {
            "start": 6172,
            "length": 20
          },
          {
            "start": 7429,
            "length": 20
          },
          {
            "start": 7842,
            "length": 20
          },
          {
            "start": 8074,
            "length": 20
          },
          {
            "start": 9463,
            "length": 20
          },
          {
            "start": 9682,
            "length": 20
          },
          {
            "start": 10076,
            "length": 20
          },
          {
            "start": 11549,
            "length": 20
          },
          {
            "start": 12273,
            "length": 20
          },
          {
            "start": 16030,
            "length": 20
          }
        ]
      },
      "src/libraries/LinkModuleLogic.sol": {
        "LinkModuleLogic": [
          {
            "start": 3145,
            "length": 20
          },
          {
            "start": 3586,
            "length": 20
          },
          {
            "start": 6616,
            "length": 20
          },
          {
            "start": 10610,
            "length": 20
          },
          {
            "start": 11476,
            "length": 20
          }
        ]
      },
      "src/libraries/PostLogic.sol": {
        "PostLogic": [
          {
            "start": 4313,
            "length": 20
          },
          {
            "start": 4819,
            "length": 20
          },
          {
            "start": 5701,
            "length": 20
          },
          {
            "start": 6366,
            "length": 20
          },
          {
            "start": 7713,
            "length": 20
          },
          {
            "start": 8431,
            "length": 20
          },
          {
            "start": 9152,
            "length": 20
          },
          {
            "start": 12595,
            "length": 20
          }
        ]
      }
    }
  },
  "methodIdentifiers": {
    "approve(address,uint256)": "095ea7b3",
    "balanceOf(address)": "70a08231",
    "burn(uint256)": "42966c68",
    "canCreate(string,address)": "7daca6d0",
    "createCharacter((address,string,string,address,bytes))": "cd69fe61",
    "createThenLinkCharacter((uint256,address,bytes32))": "f6479d77",
    "deleteNote(uint256,uint256)": "c2a6fe3b",
    "getApproved(uint256)": "081812fc",
    "getCharacter(uint256)": "dabb0531",
    "getCharacterByHandle(string)": "9a50248d",
    "getCharacterUri(uint256)": "144a3e83",
    "getHandle(uint256)": "ec81d194",
    "getLinkModule4Address(address)": "31b9d08c",
    "getLinkModule4ERC721(address,uint256)": "2209d145",
    "getLinkModule4Linklist(uint256)": "fe9299fb",
    "getLinklistContract()": "c053f6b8",
    "getLinklistId(uint256,bytes32)": "d70e10c6",
    "getLinklistType(uint256)": "8b4ca06a",
    "getLinklistUri(uint256)": "dca27135",
    "getNote(uint256,uint256)": "db491e80",
    "getOperator(uint256)": "05f63c8a",
    "getPrimaryCharacterId(address)": "2abc6bf6",
    "getRevision()": "1316529d",
    "initialize(string,string,address,address,address,address)": "e56f2fe4",
    "isApprovedForAll(address,address)": "e985e9c5",
    "isPrimaryCharacter(uint256)": "8734bbfc",
    "linkAddress((uint256,address,bytes32,bytes))": "388f5083",
    "linkAnyUri((uint256,string,bytes32,bytes))": "5fb88183",
    "linkCharacter((uint256,uint256,bytes32,bytes))": "188b04b3",
    "linkCharacterLink(uint256,(uint256,uint256,bytes32),bytes32)": "dbb164d9",
    "linkERC721((uint256,address,uint256,bytes32,bytes))": "cb8e757e",
    "linkLinklist((uint256,uint256,bytes32,bytes))": "9864c307",
    "linkNote((uint256,uint256,uint256,bytes32,bytes))": "b9d32845",
    "lockNote(uint256,uint256)": "74f345cf",
    "mintNote((uint256,uint256,address,bytes))": "a7ccb4bf",
    "name()": "06fdde03",
    "ownerOf(uint256)": "6352211e",
    "postNote((uint256,string,address,bytes,address,bytes,bool))": "29c301c2",
    "postNote4Address((uint256,string,address,bytes,address,bytes,bool),address)": "92f7070b",
    "postNote4AnyUri((uint256,string,address,bytes,address,bytes,bool),string)": "f316bacd",
    "postNote4Character((uint256,string,address,bytes,address,bytes,bool),uint256)": "af90b112",
    "postNote4ERC721((uint256,string,address,bytes,address,bytes,bool),(address,uint256))": "327b2a03",
    "postNote4Linklist((uint256,string,address,bytes,address,bytes,bool),uint256)": "44b82a24",
    "postNote4Note((uint256,string,address,bytes,address,bytes,bool),(uint256,uint256))": "9a4dec18",
    "resolver()": "04f3bcec",
    "safeTransferFrom(address,address,uint256)": "42842e0e",
    "safeTransferFrom(address,address,uint256,bytes)": "b88d4fde",
    "setApprovalForAll(address,bool)": "a22cb465",
    "setCharacterUri(uint256,string)": "47f94de7",
    "setHandle(uint256,string)": "a6e6178d",
    "setLinkModule4Address((address,address,bytes))": "08cb68ff",
    "setLinkModule4Character((uint256,address,bytes))": "fd2d866f",
    "setLinkModule4ERC721((address,uint256,address,bytes))": "69492c97",
    "setLinkModule4Linklist((uint256,address,bytes))": "0c4dd5f2",
    "setLinkModule4Note((uint256,uint256,address,bytes))": "db8c198d",
    "setLinklistUri(uint256,string)": "33f06ee6",
    "setMintModule4Note((uint256,uint256,address,bytes))": "d23b320b",
    "setNoteUri(uint256,uint256,string)": "628b644a",
    "setOperator(uint256,address)": "e7a1c1c0",
    "setPrimaryCharacterId(uint256)": "f2ad8075",
    "setSocialToken(uint256,address)": "95d9fa7d",
    "supportsInterface(bytes4)": "01ffc9a7",
    "symbol()": "95d89b41",
    "tokenByIndex(uint256)": "4f6ccce7",
    "tokenOfOwnerByIndex(address,uint256)": "2f745c59",
    "tokenURI(uint256)": "c87b56dd",
    "totalSupply()": "18160ddd",
    "transferFrom(address,address,uint256)": "23b872dd",
    "unlinkAddress((uint256,address,bytes32))": "93f057e5",
    "unlinkAnyUri((uint256,string,bytes32))": "ef0828ab",
    "unlinkCharacter((uint256,uint256,bytes32))": "0ff98244",
    "unlinkCharacterLink(uint256,(uint256,uint256,bytes32),bytes32)": "ba9a9c2e",
    "unlinkERC721((uint256,address,uint256,bytes32))": "867884e6",
    "unlinkLinklist((uint256,uint256,bytes32))": "5a936d10",
    "unlinkNote((uint256,uint256,uint256,bytes32))": "40ad34d8"
  },
  "id": 36
}